{
  "_format": "hh-sol-artifact-1",
  "contractName": "Membership",
  "sourceName": "contracts/Membership2.sol",
  "abi": [
    {
      "inputs": [
        {
          "internalType": "string",
          "name": "_name",
          "type": "string"
        },
        {
          "internalType": "string",
          "name": "_symbol",
          "type": "string"
        },
        {
          "internalType": "string",
          "name": "_URI",
          "type": "string"
        },
        {
          "internalType": "uint256",
          "name": "_cost",
          "type": "uint256"
        },
        {
          "internalType": "uint256",
          "name": "_maxMintAmount",
          "type": "uint256"
        }
      ],
      "stateMutability": "nonpayable",
      "type": "constructor"
    },
    {
      "anonymous": false,
      "inputs": [
        {
          "indexed": true,
          "internalType": "address",
          "name": "owner",
          "type": "address"
        },
        {
          "indexed": true,
          "internalType": "address",
          "name": "approved",
          "type": "address"
        },
        {
          "indexed": true,
          "internalType": "uint256",
          "name": "tokenId",
          "type": "uint256"
        }
      ],
      "name": "Approval",
      "type": "event"
    },
    {
      "anonymous": false,
      "inputs": [
        {
          "indexed": true,
          "internalType": "address",
          "name": "owner",
          "type": "address"
        },
        {
          "indexed": true,
          "internalType": "address",
          "name": "operator",
          "type": "address"
        },
        {
          "indexed": false,
          "internalType": "bool",
          "name": "approved",
          "type": "bool"
        }
      ],
      "name": "ApprovalForAll",
      "type": "event"
    },
    {
      "anonymous": false,
      "inputs": [
        {
          "indexed": true,
          "internalType": "address",
          "name": "previousOwner",
          "type": "address"
        },
        {
          "indexed": true,
          "internalType": "address",
          "name": "newOwner",
          "type": "address"
        }
      ],
      "name": "OwnershipTransferred",
      "type": "event"
    },
    {
      "anonymous": false,
      "inputs": [
        {
          "indexed": true,
          "internalType": "address",
          "name": "from",
          "type": "address"
        },
        {
          "indexed": true,
          "internalType": "address",
          "name": "to",
          "type": "address"
        },
        {
          "indexed": true,
          "internalType": "uint256",
          "name": "tokenId",
          "type": "uint256"
        }
      ],
      "name": "Transfer",
      "type": "event"
    },
    {
      "inputs": [],
      "name": "_tokenIds",
      "outputs": [
        {
          "internalType": "uint256",
          "name": "",
          "type": "uint256"
        }
      ],
      "stateMutability": "view",
      "type": "function"
    },
    {
      "inputs": [
        {
          "internalType": "address",
          "name": "to",
          "type": "address"
        },
        {
          "internalType": "uint256",
          "name": "tokenId",
          "type": "uint256"
        }
      ],
      "name": "approve",
      "outputs": [],
      "stateMutability": "nonpayable",
      "type": "function"
    },
    {
      "inputs": [
        {
          "internalType": "address",
          "name": "owner",
          "type": "address"
        }
      ],
      "name": "balanceOf",
      "outputs": [
        {
          "internalType": "uint256",
          "name": "",
          "type": "uint256"
        }
      ],
      "stateMutability": "view",
      "type": "function"
    },
    {
      "inputs": [],
      "name": "baseURI",
      "outputs": [
        {
          "internalType": "string",
          "name": "",
          "type": "string"
        }
      ],
      "stateMutability": "view",
      "type": "function"
    },
    {
      "inputs": [],
      "name": "cost",
      "outputs": [
        {
          "internalType": "uint256",
          "name": "",
          "type": "uint256"
        }
      ],
      "stateMutability": "view",
      "type": "function"
    },
    {
      "inputs": [
        {
          "internalType": "uint256",
          "name": "tokenId",
          "type": "uint256"
        }
      ],
      "name": "getApproved",
      "outputs": [
        {
          "internalType": "address",
          "name": "",
          "type": "address"
        }
      ],
      "stateMutability": "view",
      "type": "function"
    },
    {
      "inputs": [
        {
          "internalType": "address",
          "name": "owner",
          "type": "address"
        },
        {
          "internalType": "address",
          "name": "operator",
          "type": "address"
        }
      ],
      "name": "isApprovedForAll",
      "outputs": [
        {
          "internalType": "bool",
          "name": "",
          "type": "bool"
        }
      ],
      "stateMutability": "view",
      "type": "function"
    },
    {
      "inputs": [],
      "name": "maxMintAmount",
      "outputs": [
        {
          "internalType": "uint256",
          "name": "",
          "type": "uint256"
        }
      ],
      "stateMutability": "view",
      "type": "function"
    },
    {
      "inputs": [],
      "name": "mintNewToken",
      "outputs": [
        {
          "internalType": "uint256",
          "name": "",
          "type": "uint256"
        }
      ],
      "stateMutability": "payable",
      "type": "function"
    },
    {
      "inputs": [],
      "name": "name",
      "outputs": [
        {
          "internalType": "string",
          "name": "",
          "type": "string"
        }
      ],
      "stateMutability": "view",
      "type": "function"
    },
    {
      "inputs": [],
      "name": "owner",
      "outputs": [
        {
          "internalType": "address",
          "name": "",
          "type": "address"
        }
      ],
      "stateMutability": "view",
      "type": "function"
    },
    {
      "inputs": [
        {
          "internalType": "uint256",
          "name": "tokenId",
          "type": "uint256"
        }
      ],
      "name": "ownerOf",
      "outputs": [
        {
          "internalType": "address",
          "name": "",
          "type": "address"
        }
      ],
      "stateMutability": "view",
      "type": "function"
    },
    {
      "inputs": [],
      "name": "renounceOwnership",
      "outputs": [],
      "stateMutability": "nonpayable",
      "type": "function"
    },
    {
      "inputs": [
        {
          "internalType": "address",
          "name": "from",
          "type": "address"
        },
        {
          "internalType": "address",
          "name": "to",
          "type": "address"
        },
        {
          "internalType": "uint256",
          "name": "tokenId",
          "type": "uint256"
        }
      ],
      "name": "safeTransferFrom",
      "outputs": [],
      "stateMutability": "nonpayable",
      "type": "function"
    },
    {
      "inputs": [
        {
          "internalType": "address",
          "name": "from",
          "type": "address"
        },
        {
          "internalType": "address",
          "name": "to",
          "type": "address"
        },
        {
          "internalType": "uint256",
          "name": "tokenId",
          "type": "uint256"
        },
        {
          "internalType": "bytes",
          "name": "data",
          "type": "bytes"
        }
      ],
      "name": "safeTransferFrom",
      "outputs": [],
      "stateMutability": "nonpayable",
      "type": "function"
    },
    {
      "inputs": [
        {
          "internalType": "address",
          "name": "operator",
          "type": "address"
        },
        {
          "internalType": "bool",
          "name": "approved",
          "type": "bool"
        }
      ],
      "name": "setApprovalForAll",
      "outputs": [],
      "stateMutability": "nonpayable",
      "type": "function"
    },
    {
      "inputs": [
        {
          "internalType": "uint256",
          "name": "_cost",
          "type": "uint256"
        }
      ],
      "name": "setCost",
      "outputs": [],
      "stateMutability": "nonpayable",
      "type": "function"
    },
    {
      "inputs": [
        {
          "internalType": "bytes4",
          "name": "interfaceId",
          "type": "bytes4"
        }
      ],
      "name": "supportsInterface",
      "outputs": [
        {
          "internalType": "bool",
          "name": "",
          "type": "bool"
        }
      ],
      "stateMutability": "view",
      "type": "function"
    },
    {
      "inputs": [],
      "name": "symbol",
      "outputs": [
        {
          "internalType": "string",
          "name": "",
          "type": "string"
        }
      ],
      "stateMutability": "view",
      "type": "function"
    },
    {
      "inputs": [
        {
          "internalType": "uint256",
          "name": "tokenId",
          "type": "uint256"
        }
      ],
      "name": "tokenURI",
      "outputs": [
        {
          "internalType": "string",
          "name": "",
          "type": "string"
        }
      ],
      "stateMutability": "view",
      "type": "function"
    },
    {
      "inputs": [
        {
          "internalType": "address",
          "name": "from",
          "type": "address"
        },
        {
          "internalType": "address",
          "name": "to",
          "type": "address"
        },
        {
          "internalType": "uint256",
          "name": "tokenId",
          "type": "uint256"
        }
      ],
      "name": "transferFrom",
      "outputs": [],
      "stateMutability": "nonpayable",
      "type": "function"
    },
    {
      "inputs": [
        {
          "internalType": "address",
          "name": "newOwner",
          "type": "address"
        }
      ],
      "name": "transferOwnership",
      "outputs": [],
      "stateMutability": "nonpayable",
      "type": "function"
    },
    {
      "inputs": [],
      "name": "withdraw",
      "outputs": [],
      "stateMutability": "payable",
      "type": "function"
    }
  ],
  "bytecode": "0x60806040526040518060400160405280600581526020017f2e6a736f6e000000000000000000000000000000000000000000000000000000815250600a908051906020019062000051929190620001db565b503480156200005f57600080fd5b506040516200346b3803806200346b833981810160405281019062000085919062000463565b848481600090805190602001906200009f929190620001db565b508060019080519060200190620000b8929190620001db565b505050620000db620000cf6200010d60201b60201c565b6200011560201b60201c565b8260099080519060200190620000f3929190620001db565b5081600b8190555080600c819055505050505050620005ad565b600033905090565b6000600760009054906101000a900473ffffffffffffffffffffffffffffffffffffffff16905081600760006101000a81548173ffffffffffffffffffffffffffffffffffffffff021916908373ffffffffffffffffffffffffffffffffffffffff1602179055508173ffffffffffffffffffffffffffffffffffffffff168173ffffffffffffffffffffffffffffffffffffffff167f8be0079c531659141344cd1fd0a4f28419497f9722a3daafe3b4186f6b6457e060405160405180910390a35050565b828054620001e99062000577565b90600052602060002090601f0160209004810192826200020d576000855562000259565b82601f106200022857805160ff191683800117855562000259565b8280016001018555821562000259579182015b82811115620002585782518255916020019190600101906200023b565b5b5090506200026891906200026c565b5090565b5b80821115620002875760008160009055506001016200026d565b5090565b6000604051905090565b600080fd5b600080fd5b600080fd5b600080fd5b6000601f19601f8301169050919050565b7f4e487b7100000000000000000000000000000000000000000000000000000000600052604160045260246000fd5b620002f482620002a9565b810181811067ffffffffffffffff82111715620003165762000315620002ba565b5b80604052505050565b60006200032b6200028b565b9050620003398282620002e9565b919050565b600067ffffffffffffffff8211156200035c576200035b620002ba565b5b6200036782620002a9565b9050602081019050919050565b60005b838110156200039457808201518184015260208101905062000377565b83811115620003a4576000848401525b50505050565b6000620003c1620003bb846200033e565b6200031f565b905082815260208101848484011115620003e057620003df620002a4565b5b620003ed84828562000374565b509392505050565b600082601f8301126200040d576200040c6200029f565b5b81516200041f848260208601620003aa565b91505092915050565b6000819050919050565b6200043d8162000428565b81146200044957600080fd5b50565b6000815190506200045d8162000432565b92915050565b600080600080600060a0868803121562000482576200048162000295565b5b600086015167ffffffffffffffff811115620004a357620004a26200029a565b5b620004b188828901620003f5565b955050602086015167ffffffffffffffff811115620004d557620004d46200029a565b5b620004e388828901620003f5565b945050604086015167ffffffffffffffff8111156200050757620005066200029a565b5b6200051588828901620003f5565b935050606062000528888289016200044c565b92505060806200053b888289016200044c565b9150509295509295909350565b7f4e487b7100000000000000000000000000000000000000000000000000000000600052602260045260246000fd5b600060028204905060018216806200059057607f821691505b60208210811415620005a757620005a662000548565b5b50919050565b612eae80620005bd6000396000f3fe6080604052600436106101405760003560e01c80636c0360eb116100b6578063a22cb4651161006f578063a22cb4651461041e578063aa46a40014610447578063b88d4fde14610472578063c87b56dd1461049b578063e985e9c5146104d8578063f2fde38b1461051557610140565b80636c0360eb1461032b57806370a0823114610356578063715018a61461039357806374f10479146103aa5780638da5cb5b146103c857806395d89b41146103f357610140565b8063239c70ae11610108578063239c70ae1461023e57806323b872dd146102695780633ccfd60b1461029257806342842e0e1461029c57806344a0d68a146102c55780636352211e146102ee57610140565b806301ffc9a71461014557806306fdde0314610182578063081812fc146101ad578063095ea7b3146101ea57806313faede614610213575b600080fd5b34801561015157600080fd5b5061016c60048036038101906101679190611d54565b61053e565b6040516101799190611d9c565b60405180910390f35b34801561018e57600080fd5b50610197610620565b6040516101a49190611e50565b60405180910390f35b3480156101b957600080fd5b506101d460048036038101906101cf9190611ea8565b6106b2565b6040516101e19190611f16565b60405180910390f35b3480156101f657600080fd5b50610211600480360381019061020c9190611f5d565b6106f8565b005b34801561021f57600080fd5b50610228610810565b6040516102359190611fac565b60405180910390f35b34801561024a57600080fd5b50610253610816565b6040516102609190611fac565b60405180910390f35b34801561027557600080fd5b50610290600480360381019061028b9190611fc7565b61081c565b005b61029a61087c565b005b3480156102a857600080fd5b506102c360048036038101906102be9190611fc7565b61093a565b005b3480156102d157600080fd5b506102ec60048036038101906102e79190611ea8565b61095a565b005b3480156102fa57600080fd5b5061031560048036038101906103109190611ea8565b61096c565b6040516103229190611f16565b60405180910390f35b34801561033757600080fd5b50610340610a1e565b60405161034d9190611e50565b60405180910390f35b34801561036257600080fd5b5061037d6004803603810190610378919061201a565b610aac565b60405161038a9190611fac565b60405180910390f35b34801561039f57600080fd5b506103a8610b64565b005b6103b2610b78565b6040516103bf9190611fac565b60405180910390f35b3480156103d457600080fd5b506103dd610cd6565b6040516103ea9190611f16565b60405180910390f35b3480156103ff57600080fd5b50610408610d00565b6040516104159190611e50565b60405180910390f35b34801561042a57600080fd5b5061044560048036038101906104409190612073565b610d92565b005b34801561045357600080fd5b5061045c610da8565b6040516104699190611fac565b60405180910390f35b34801561047e57600080fd5b50610499600480360381019061049491906121e8565b610dae565b005b3480156104a757600080fd5b506104c260048036038101906104bd9190611ea8565b610e10565b6040516104cf9190611e50565b60405180910390f35b3480156104e457600080fd5b506104ff60048036038101906104fa919061226b565b610ead565b60405161050c9190611d9c565b60405180910390f35b34801561052157600080fd5b5061053c6004803603810190610537919061201a565b610f41565b005b60007f80ac58cd000000000000000000000000000000000000000000000000000000007bffffffffffffffffffffffffffffffffffffffffffffffffffffffff1916827bffffffffffffffffffffffffffffffffffffffffffffffffffffffff1916148061060957507f5b5e139f000000000000000000000000000000000000000000000000000000007bffffffffffffffffffffffffffffffffffffffffffffffffffffffff1916827bffffffffffffffffffffffffffffffffffffffffffffffffffffffff1916145b80610619575061061882610fc5565b5b9050919050565b60606000805461062f906122da565b80601f016020809104026020016040519081016040528092919081815260200182805461065b906122da565b80156106a85780601f1061067d576101008083540402835291602001916106a8565b820191906000526020600020905b81548152906001019060200180831161068b57829003601f168201915b5050505050905090565b60006106bd8261102f565b6004600083815260200190815260200160002060009054906101000a900473ffffffffffffffffffffffffffffffffffffffff169050919050565b60006107038261096c565b90508073ffffffffffffffffffffffffffffffffffffffff168373ffffffffffffffffffffffffffffffffffffffff161415610774576040517f08c379a000000000000000000000000000000000000000000000000000000000815260040161076b9061237e565b60405180910390fd5b8073ffffffffffffffffffffffffffffffffffffffff1661079361107a565b73ffffffffffffffffffffffffffffffffffffffff1614806107c257506107c1816107bc61107a565b610ead565b5b610801576040517f08c379a00000000000000000000000000000000000000000000000000000000081526004016107f890612410565b60405180910390fd5b61080b8383611082565b505050565b600b5481565b600c5481565b61082d61082761107a565b8261113b565b61086c576040517f08c379a0000000000000000000000000000000000000000000000000000000008152600401610863906124a2565b60405180910390fd5b6108778383836111d0565b505050565b610884611437565b600061088e610cd6565b73ffffffffffffffffffffffffffffffffffffffff16476040516108b1906124f3565b60006040518083038185875af1925050503d80600081146108ee576040519150601f19603f3d011682016040523d82523d6000602084013e6108f3565b606091505b5050905080610937576040517f08c379a000000000000000000000000000000000000000000000000000000000815260040161092e90612554565b60405180910390fd5b50565b61095583838360405180602001604052806000815250610dae565b505050565b610962611437565b80600b8190555050565b6000806002600084815260200190815260200160002060009054906101000a900473ffffffffffffffffffffffffffffffffffffffff169050600073ffffffffffffffffffffffffffffffffffffffff168173ffffffffffffffffffffffffffffffffffffffff161415610a15576040517f08c379a0000000000000000000000000000000000000000000000000000000008152600401610a0c906125c0565b60405180910390fd5b80915050919050565b60098054610a2b906122da565b80601f0160208091040260200160405190810160405280929190818152602001828054610a57906122da565b8015610aa45780601f10610a7957610100808354040283529160200191610aa4565b820191906000526020600020905b815481529060010190602001808311610a8757829003601f168201915b505050505081565b60008073ffffffffffffffffffffffffffffffffffffffff168273ffffffffffffffffffffffffffffffffffffffff161415610b1d576040517f08c379a0000000000000000000000000000000000000000000000000000000008152600401610b1490612652565b60405180910390fd5b600360008373ffffffffffffffffffffffffffffffffffffffff1673ffffffffffffffffffffffffffffffffffffffff168152602001908152602001600020549050919050565b610b6c611437565b610b7660006114b5565b565b6000600c546001600854610b8c91906126a1565b1115610bcd576040517f08c379a0000000000000000000000000000000000000000000000000000000008152600401610bc490612743565b60405180910390fd5b600b54341015610c12576040517f08c379a0000000000000000000000000000000000000000000000000000000008152600401610c09906127af565b60405180910390fd5b60086000815480929190610c25906127cf565b919050555060006008549050610c3b338261157b565b610ccf8160098054610c4c906122da565b80601f0160208091040260200160405190810160405280929190818152602001828054610c78906122da565b8015610cc55780601f10610c9a57610100808354040283529160200191610cc5565b820191906000526020600020905b815481529060010190602001808311610ca857829003601f168201915b5050505050611755565b8091505090565b6000600760009054906101000a900473ffffffffffffffffffffffffffffffffffffffff16905090565b606060018054610d0f906122da565b80601f0160208091040260200160405190810160405280929190818152602001828054610d3b906122da565b8015610d885780601f10610d5d57610100808354040283529160200191610d88565b820191906000526020600020905b815481529060010190602001808311610d6b57829003601f168201915b5050505050905090565b610da4610d9d61107a565b83836117c9565b5050565b60085481565b610dbf610db961107a565b8361113b565b610dfe576040517f08c379a0000000000000000000000000000000000000000000000000000000008152600401610df5906124a2565b60405180910390fd5b610e0a84848484611936565b50505050565b6060610e1b82611992565b610e5a576040517f08c379a0000000000000000000000000000000000000000000000000000000008152600401610e5190612864565b60405180910390fd5b6000610e646119fe565b90506000815111610e845760405180602001604052806000815250610ea5565b80604051602001610e9591906128c0565b6040516020818303038152906040525b915050919050565b6000600560008473ffffffffffffffffffffffffffffffffffffffff1673ffffffffffffffffffffffffffffffffffffffff16815260200190815260200160002060008373ffffffffffffffffffffffffffffffffffffffff1673ffffffffffffffffffffffffffffffffffffffff16815260200190815260200160002060009054906101000a900460ff16905092915050565b610f49611437565b600073ffffffffffffffffffffffffffffffffffffffff168173ffffffffffffffffffffffffffffffffffffffff161415610fb9576040517f08c379a0000000000000000000000000000000000000000000000000000000008152600401610fb090612949565b60405180910390fd5b610fc2816114b5565b50565b60007f01ffc9a7000000000000000000000000000000000000000000000000000000007bffffffffffffffffffffffffffffffffffffffffffffffffffffffff1916827bffffffffffffffffffffffffffffffffffffffffffffffffffffffff1916149050919050565b61103881611992565b611077576040517f08c379a000000000000000000000000000000000000000000000000000000000815260040161106e906125c0565b60405180910390fd5b50565b600033905090565b816004600083815260200190815260200160002060006101000a81548173ffffffffffffffffffffffffffffffffffffffff021916908373ffffffffffffffffffffffffffffffffffffffff160217905550808273ffffffffffffffffffffffffffffffffffffffff166110f58361096c565b73ffffffffffffffffffffffffffffffffffffffff167f8c5be1e5ebec7d5bd14f71427d1e84f3dd0314c0f7b2291e5b200ac8c7c3b92560405160405180910390a45050565b6000806111478361096c565b90508073ffffffffffffffffffffffffffffffffffffffff168473ffffffffffffffffffffffffffffffffffffffff16148061118957506111888185610ead565b5b806111c757508373ffffffffffffffffffffffffffffffffffffffff166111af846106b2565b73ffffffffffffffffffffffffffffffffffffffff16145b91505092915050565b8273ffffffffffffffffffffffffffffffffffffffff166111f08261096c565b73ffffffffffffffffffffffffffffffffffffffff1614611246576040517f08c379a000000000000000000000000000000000000000000000000000000000815260040161123d906129db565b60405180910390fd5b600073ffffffffffffffffffffffffffffffffffffffff168273ffffffffffffffffffffffffffffffffffffffff1614156112b6576040517f08c379a00000000000000000000000000000000000000000000000000000000081526004016112ad90612a6d565b60405180910390fd5b6112c1838383611a90565b6112cc600082611082565b6001600360008573ffffffffffffffffffffffffffffffffffffffff1673ffffffffffffffffffffffffffffffffffffffff168152602001908152602001600020600082825461131c9190612a8d565b925050819055506001600360008473ffffffffffffffffffffffffffffffffffffffff1673ffffffffffffffffffffffffffffffffffffffff168152602001908152602001600020600082825461137391906126a1565b92505081905550816002600083815260200190815260200160002060006101000a81548173ffffffffffffffffffffffffffffffffffffffff021916908373ffffffffffffffffffffffffffffffffffffffff160217905550808273ffffffffffffffffffffffffffffffffffffffff168473ffffffffffffffffffffffffffffffffffffffff167fddf252ad1be2c89b69c2b068fc378daa952ba7f163c4a11628f55a4df523b3ef60405160405180910390a4611432838383611a95565b505050565b61143f61107a565b73ffffffffffffffffffffffffffffffffffffffff1661145d610cd6565b73ffffffffffffffffffffffffffffffffffffffff16146114b3576040517f08c379a00000000000000000000000000000000000000000000000000000000081526004016114aa90612b0d565b60405180910390fd5b565b6000600760009054906101000a900473ffffffffffffffffffffffffffffffffffffffff16905081600760006101000a81548173ffffffffffffffffffffffffffffffffffffffff021916908373ffffffffffffffffffffffffffffffffffffffff1602179055508173ffffffffffffffffffffffffffffffffffffffff168173ffffffffffffffffffffffffffffffffffffffff167f8be0079c531659141344cd1fd0a4f28419497f9722a3daafe3b4186f6b6457e060405160405180910390a35050565b600073ffffffffffffffffffffffffffffffffffffffff168273ffffffffffffffffffffffffffffffffffffffff1614156115eb576040517f08c379a00000000000000000000000000000000000000000000000000000000081526004016115e290612b79565b60405180910390fd5b6115f481611992565b15611634576040517f08c379a000000000000000000000000000000000000000000000000000000000815260040161162b90612be5565b60405180910390fd5b61164060008383611a90565b6001600360008473ffffffffffffffffffffffffffffffffffffffff1673ffffffffffffffffffffffffffffffffffffffff168152602001908152602001600020600082825461169091906126a1565b92505081905550816002600083815260200190815260200160002060006101000a81548173ffffffffffffffffffffffffffffffffffffffff021916908373ffffffffffffffffffffffffffffffffffffffff160217905550808273ffffffffffffffffffffffffffffffffffffffff16600073ffffffffffffffffffffffffffffffffffffffff167fddf252ad1be2c89b69c2b068fc378daa952ba7f163c4a11628f55a4df523b3ef60405160405180910390a461175160008383611a95565b5050565b61175e82611992565b61179d576040517f08c379a000000000000000000000000000000000000000000000000000000000815260040161179490612c77565b60405180910390fd5b806006600084815260200190815260200160002090805190602001906117c4929190611c45565b505050565b8173ffffffffffffffffffffffffffffffffffffffff168373ffffffffffffffffffffffffffffffffffffffff161415611838576040517f08c379a000000000000000000000000000000000000000000000000000000000815260040161182f90612ce3565b60405180910390fd5b80600560008573ffffffffffffffffffffffffffffffffffffffff1673ffffffffffffffffffffffffffffffffffffffff16815260200190815260200160002060008473ffffffffffffffffffffffffffffffffffffffff1673ffffffffffffffffffffffffffffffffffffffff16815260200190815260200160002060006101000a81548160ff0219169083151502179055508173ffffffffffffffffffffffffffffffffffffffff168373ffffffffffffffffffffffffffffffffffffffff167f17307eab39ab6107e8899845ad3d59bd9653f200f220920489ca2b5937696c31836040516119299190611d9c565b60405180910390a3505050565b6119418484846111d0565b61194d84848484611a9a565b61198c576040517f08c379a000000000000000000000000000000000000000000000000000000000815260040161198390612d75565b60405180910390fd5b50505050565b60008073ffffffffffffffffffffffffffffffffffffffff166002600084815260200190815260200160002060009054906101000a900473ffffffffffffffffffffffffffffffffffffffff1673ffffffffffffffffffffffffffffffffffffffff1614159050919050565b606060098054611a0d906122da565b80601f0160208091040260200160405190810160405280929190818152602001828054611a39906122da565b8015611a865780601f10611a5b57610100808354040283529160200191611a86565b820191906000526020600020905b815481529060010190602001808311611a6957829003601f168201915b5050505050905090565b505050565b505050565b6000611abb8473ffffffffffffffffffffffffffffffffffffffff16611c22565b15611c15578373ffffffffffffffffffffffffffffffffffffffff1663150b7a02611ae461107a565b8786866040518563ffffffff1660e01b8152600401611b069493929190612dea565b6020604051808303816000875af1925050508015611b4257506040513d601f19601f82011682018060405250810190611b3f9190612e4b565b60015b611bc5573d8060008114611b72576040519150601f19603f3d011682016040523d82523d6000602084013e611b77565b606091505b50600081511415611bbd576040517f08c379a0000000000000000000000000000000000000000000000000000000008152600401611bb490612d75565b60405180910390fd5b805181602001fd5b63150b7a0260e01b7bffffffffffffffffffffffffffffffffffffffffffffffffffffffff1916817bffffffffffffffffffffffffffffffffffffffffffffffffffffffff191614915050611c1a565b600190505b949350505050565b6000808273ffffffffffffffffffffffffffffffffffffffff163b119050919050565b828054611c51906122da565b90600052602060002090601f016020900481019282611c735760008555611cba565b82601f10611c8c57805160ff1916838001178555611cba565b82800160010185558215611cba579182015b82811115611cb9578251825591602001919060010190611c9e565b5b509050611cc79190611ccb565b5090565b5b80821115611ce4576000816000905550600101611ccc565b5090565b6000604051905090565b600080fd5b600080fd5b60007fffffffff0000000000000000000000000000000000000000000000000000000082169050919050565b611d3181611cfc565b8114611d3c57600080fd5b50565b600081359050611d4e81611d28565b92915050565b600060208284031215611d6a57611d69611cf2565b5b6000611d7884828501611d3f565b91505092915050565b60008115159050919050565b611d9681611d81565b82525050565b6000602082019050611db16000830184611d8d565b92915050565b600081519050919050565b600082825260208201905092915050565b60005b83811015611df1578082015181840152602081019050611dd6565b83811115611e00576000848401525b50505050565b6000601f19601f8301169050919050565b6000611e2282611db7565b611e2c8185611dc2565b9350611e3c818560208601611dd3565b611e4581611e06565b840191505092915050565b60006020820190508181036000830152611e6a8184611e17565b905092915050565b6000819050919050565b611e8581611e72565b8114611e9057600080fd5b50565b600081359050611ea281611e7c565b92915050565b600060208284031215611ebe57611ebd611cf2565b5b6000611ecc84828501611e93565b91505092915050565b600073ffffffffffffffffffffffffffffffffffffffff82169050919050565b6000611f0082611ed5565b9050919050565b611f1081611ef5565b82525050565b6000602082019050611f2b6000830184611f07565b92915050565b611f3a81611ef5565b8114611f4557600080fd5b50565b600081359050611f5781611f31565b92915050565b60008060408385031215611f7457611f73611cf2565b5b6000611f8285828601611f48565b9250506020611f9385828601611e93565b9150509250929050565b611fa681611e72565b82525050565b6000602082019050611fc16000830184611f9d565b92915050565b600080600060608486031215611fe057611fdf611cf2565b5b6000611fee86828701611f48565b9350506020611fff86828701611f48565b925050604061201086828701611e93565b9150509250925092565b6000602082840312156120305761202f611cf2565b5b600061203e84828501611f48565b91505092915050565b61205081611d81565b811461205b57600080fd5b50565b60008135905061206d81612047565b92915050565b6000806040838503121561208a57612089611cf2565b5b600061209885828601611f48565b92505060206120a98582860161205e565b9150509250929050565b600080fd5b600080fd5b7f4e487b7100000000000000000000000000000000000000000000000000000000600052604160045260246000fd5b6120f582611e06565b810181811067ffffffffffffffff82111715612114576121136120bd565b5b80604052505050565b6000612127611ce8565b905061213382826120ec565b919050565b600067ffffffffffffffff821115612153576121526120bd565b5b61215c82611e06565b9050602081019050919050565b82818337600083830152505050565b600061218b61218684612138565b61211d565b9050828152602081018484840111156121a7576121a66120b8565b5b6121b2848285612169565b509392505050565b600082601f8301126121cf576121ce6120b3565b5b81356121df848260208601612178565b91505092915050565b6000806000806080858703121561220257612201611cf2565b5b600061221087828801611f48565b945050602061222187828801611f48565b935050604061223287828801611e93565b925050606085013567ffffffffffffffff81111561225357612252611cf7565b5b61225f878288016121ba565b91505092959194509250565b6000806040838503121561228257612281611cf2565b5b600061229085828601611f48565b92505060206122a185828601611f48565b9150509250929050565b7f4e487b7100000000000000000000000000000000000000000000000000000000600052602260045260246000fd5b600060028204905060018216806122f257607f821691505b60208210811415612306576123056122ab565b5b50919050565b7f4552433732313a20617070726f76616c20746f2063757272656e74206f776e6560008201527f7200000000000000000000000000000000000000000000000000000000000000602082015250565b6000612368602183611dc2565b91506123738261230c565b604082019050919050565b600060208201905081810360008301526123978161235b565b9050919050565b7f4552433732313a20617070726f76652063616c6c6572206973206e6f7420746f60008201527f6b656e206f776e6572206e6f7220617070726f76656420666f7220616c6c0000602082015250565b60006123fa603e83611dc2565b91506124058261239e565b604082019050919050565b60006020820190508181036000830152612429816123ed565b9050919050565b7f4552433732313a2063616c6c6572206973206e6f7420746f6b656e206f776e6560008201527f72206e6f7220617070726f766564000000000000000000000000000000000000602082015250565b600061248c602e83611dc2565b915061249782612430565b604082019050919050565b600060208201905081810360008301526124bb8161247f565b9050919050565b600081905092915050565b50565b60006124dd6000836124c2565b91506124e8826124cd565b600082019050919050565b60006124fe826124d0565b9150819050919050565b7f7769746864726177206661696c65640000000000000000000000000000000000600082015250565b600061253e600f83611dc2565b915061254982612508565b602082019050919050565b6000602082019050818103600083015261256d81612531565b9050919050565b7f4552433732313a20696e76616c696420746f6b656e2049440000000000000000600082015250565b60006125aa601883611dc2565b91506125b582612574565b602082019050919050565b600060208201905081810360008301526125d98161259d565b9050919050565b7f4552433732313a2061646472657373207a65726f206973206e6f74206120766160008201527f6c6964206f776e65720000000000000000000000000000000000000000000000602082015250565b600061263c602983611dc2565b9150612647826125e0565b604082019050919050565b6000602082019050818103600083015261266b8161262f565b9050919050565b7f4e487b7100000000000000000000000000000000000000000000000000000000600052601160045260246000fd5b60006126ac82611e72565b91506126b783611e72565b9250827fffffffffffffffffffffffffffffffffffffffffffffffffffffffffffffffff038211156126ec576126eb612672565b5b828201905092915050565b7f536f6c64206f7574000000000000000000000000000000000000000000000000600082015250565b600061272d600883611dc2565b9150612738826126f7565b602082019050919050565b6000602082019050818103600083015261275c81612720565b9050919050565b7f4e6f7420656e6f75676820455448000000000000000000000000000000000000600082015250565b6000612799600e83611dc2565b91506127a482612763565b602082019050919050565b600060208201905081810360008301526127c88161278c565b9050919050565b60006127da82611e72565b91507fffffffffffffffffffffffffffffffffffffffffffffffffffffffffffffffff82141561280d5761280c612672565b5b600182019050919050565b7f746f6b656e20696420646f656573206e6f742065786973740000000000000000600082015250565b600061284e601883611dc2565b915061285982612818565b602082019050919050565b6000602082019050818103600083015261287d81612841565b9050919050565b600081905092915050565b600061289a82611db7565b6128a48185612884565b93506128b4818560208601611dd3565b80840191505092915050565b60006128cc828461288f565b915081905092915050565b7f4f776e61626c653a206e6577206f776e657220697320746865207a65726f206160008201527f6464726573730000000000000000000000000000000000000000000000000000602082015250565b6000612933602683611dc2565b915061293e826128d7565b604082019050919050565b6000602082019050818103600083015261296281612926565b9050919050565b7f4552433732313a207472616e736665722066726f6d20696e636f72726563742060008201527f6f776e6572000000000000000000000000000000000000000000000000000000602082015250565b60006129c5602583611dc2565b91506129d082612969565b604082019050919050565b600060208201905081810360008301526129f4816129b8565b9050919050565b7f4552433732313a207472616e7366657220746f20746865207a65726f2061646460008201527f7265737300000000000000000000000000000000000000000000000000000000602082015250565b6000612a57602483611dc2565b9150612a62826129fb565b604082019050919050565b60006020820190508181036000830152612a8681612a4a565b9050919050565b6000612a9882611e72565b9150612aa383611e72565b925082821015612ab657612ab5612672565b5b828203905092915050565b7f4f776e61626c653a2063616c6c6572206973206e6f7420746865206f776e6572600082015250565b6000612af7602083611dc2565b9150612b0282612ac1565b602082019050919050565b60006020820190508181036000830152612b2681612aea565b9050919050565b7f4552433732313a206d696e7420746f20746865207a65726f2061646472657373600082015250565b6000612b63602083611dc2565b9150612b6e82612b2d565b602082019050919050565b60006020820190508181036000830152612b9281612b56565b9050919050565b7f4552433732313a20746f6b656e20616c7265616479206d696e74656400000000600082015250565b6000612bcf601c83611dc2565b9150612bda82612b99565b602082019050919050565b60006020820190508181036000830152612bfe81612bc2565b9050919050565b7f45524337323155524953746f726167653a2055524920736574206f66206e6f6e60008201527f6578697374656e7420746f6b656e000000000000000000000000000000000000602082015250565b6000612c61602e83611dc2565b9150612c6c82612c05565b604082019050919050565b60006020820190508181036000830152612c9081612c54565b9050919050565b7f4552433732313a20617070726f766520746f2063616c6c657200000000000000600082015250565b6000612ccd601983611dc2565b9150612cd882612c97565b602082019050919050565b60006020820190508181036000830152612cfc81612cc0565b9050919050565b7f4552433732313a207472616e7366657220746f206e6f6e20455243373231526560008201527f63656976657220696d706c656d656e7465720000000000000000000000000000602082015250565b6000612d5f603283611dc2565b9150612d6a82612d03565b604082019050919050565b60006020820190508181036000830152612d8e81612d52565b9050919050565b600081519050919050565b600082825260208201905092915050565b6000612dbc82612d95565b612dc68185612da0565b9350612dd6818560208601611dd3565b612ddf81611e06565b840191505092915050565b6000608082019050612dff6000830187611f07565b612e0c6020830186611f07565b612e196040830185611f9d565b8181036060830152612e2b8184612db1565b905095945050505050565b600081519050612e4581611d28565b92915050565b600060208284031215612e6157612e60611cf2565b5b6000612e6f84828501612e36565b9150509291505056fea2646970667358221220ac7a0ce0d7409b407aabeb0dfc1b642c3d47ea19a7252acd6516fc8bb93ecf7a64736f6c634300080a0033",
  "linkReferences": {},
  "deployedLinkReferences": {}
}