{
  "_format": "hh-sol-artifact-1",
  "contractName": "Membership",
  "sourceName": "contracts/MembershipFactory.sol",
  "abi": [
    {
      "inputs": [
        {
          "internalType": "string",
          "name": "_name",
          "type": "string"
        },
        {
          "internalType": "string",
          "name": "_symbol",
          "type": "string"
        }
      ],
      "stateMutability": "nonpayable",
      "type": "constructor"
    },
    {
      "anonymous": false,
      "inputs": [
        {
          "indexed": true,
          "internalType": "address",
          "name": "owner",
          "type": "address"
        },
        {
          "indexed": true,
          "internalType": "address",
          "name": "approved",
          "type": "address"
        },
        {
          "indexed": true,
          "internalType": "uint256",
          "name": "tokenId",
          "type": "uint256"
        }
      ],
      "name": "Approval",
      "type": "event"
    },
    {
      "anonymous": false,
      "inputs": [
        {
          "indexed": true,
          "internalType": "address",
          "name": "owner",
          "type": "address"
        },
        {
          "indexed": true,
          "internalType": "address",
          "name": "operator",
          "type": "address"
        },
        {
          "indexed": false,
          "internalType": "bool",
          "name": "approved",
          "type": "bool"
        }
      ],
      "name": "ApprovalForAll",
      "type": "event"
    },
    {
      "anonymous": false,
      "inputs": [
        {
          "indexed": true,
          "internalType": "address",
          "name": "previousOwner",
          "type": "address"
        },
        {
          "indexed": true,
          "internalType": "address",
          "name": "newOwner",
          "type": "address"
        }
      ],
      "name": "OwnershipTransferred",
      "type": "event"
    },
    {
      "anonymous": false,
      "inputs": [
        {
          "indexed": true,
          "internalType": "address",
          "name": "from",
          "type": "address"
        },
        {
          "indexed": true,
          "internalType": "address",
          "name": "to",
          "type": "address"
        },
        {
          "indexed": true,
          "internalType": "uint256",
          "name": "tokenId",
          "type": "uint256"
        }
      ],
      "name": "Transfer",
      "type": "event"
    },
    {
      "inputs": [],
      "name": "_tokenIds",
      "outputs": [
        {
          "internalType": "uint256",
          "name": "",
          "type": "uint256"
        }
      ],
      "stateMutability": "view",
      "type": "function"
    },
    {
      "inputs": [
        {
          "internalType": "address",
          "name": "to",
          "type": "address"
        },
        {
          "internalType": "uint256",
          "name": "tokenId",
          "type": "uint256"
        }
      ],
      "name": "approve",
      "outputs": [],
      "stateMutability": "nonpayable",
      "type": "function"
    },
    {
      "inputs": [
        {
          "internalType": "address",
          "name": "owner",
          "type": "address"
        }
      ],
      "name": "balanceOf",
      "outputs": [
        {
          "internalType": "uint256",
          "name": "",
          "type": "uint256"
        }
      ],
      "stateMutability": "view",
      "type": "function"
    },
    {
      "inputs": [],
      "name": "cost",
      "outputs": [
        {
          "internalType": "uint256",
          "name": "",
          "type": "uint256"
        }
      ],
      "stateMutability": "view",
      "type": "function"
    },
    {
      "inputs": [
        {
          "internalType": "uint256",
          "name": "tokenId",
          "type": "uint256"
        }
      ],
      "name": "getApproved",
      "outputs": [
        {
          "internalType": "address",
          "name": "",
          "type": "address"
        }
      ],
      "stateMutability": "view",
      "type": "function"
    },
    {
      "inputs": [
        {
          "internalType": "address",
          "name": "owner",
          "type": "address"
        },
        {
          "internalType": "address",
          "name": "operator",
          "type": "address"
        }
      ],
      "name": "isApprovedForAll",
      "outputs": [
        {
          "internalType": "bool",
          "name": "",
          "type": "bool"
        }
      ],
      "stateMutability": "view",
      "type": "function"
    },
    {
      "inputs": [],
      "name": "maxMintAmount",
      "outputs": [
        {
          "internalType": "uint256",
          "name": "",
          "type": "uint256"
        }
      ],
      "stateMutability": "view",
      "type": "function"
    },
    {
      "inputs": [],
      "name": "mintNewToken",
      "outputs": [
        {
          "internalType": "uint256",
          "name": "",
          "type": "uint256"
        }
      ],
      "stateMutability": "payable",
      "type": "function"
    },
    {
      "inputs": [],
      "name": "name",
      "outputs": [
        {
          "internalType": "string",
          "name": "",
          "type": "string"
        }
      ],
      "stateMutability": "view",
      "type": "function"
    },
    {
      "inputs": [],
      "name": "owner",
      "outputs": [
        {
          "internalType": "address",
          "name": "",
          "type": "address"
        }
      ],
      "stateMutability": "view",
      "type": "function"
    },
    {
      "inputs": [
        {
          "internalType": "uint256",
          "name": "tokenId",
          "type": "uint256"
        }
      ],
      "name": "ownerOf",
      "outputs": [
        {
          "internalType": "address",
          "name": "",
          "type": "address"
        }
      ],
      "stateMutability": "view",
      "type": "function"
    },
    {
      "inputs": [],
      "name": "renounceOwnership",
      "outputs": [],
      "stateMutability": "nonpayable",
      "type": "function"
    },
    {
      "inputs": [
        {
          "internalType": "address",
          "name": "from",
          "type": "address"
        },
        {
          "internalType": "address",
          "name": "to",
          "type": "address"
        },
        {
          "internalType": "uint256",
          "name": "tokenId",
          "type": "uint256"
        }
      ],
      "name": "safeTransferFrom",
      "outputs": [],
      "stateMutability": "nonpayable",
      "type": "function"
    },
    {
      "inputs": [
        {
          "internalType": "address",
          "name": "from",
          "type": "address"
        },
        {
          "internalType": "address",
          "name": "to",
          "type": "address"
        },
        {
          "internalType": "uint256",
          "name": "tokenId",
          "type": "uint256"
        },
        {
          "internalType": "bytes",
          "name": "data",
          "type": "bytes"
        }
      ],
      "name": "safeTransferFrom",
      "outputs": [],
      "stateMutability": "nonpayable",
      "type": "function"
    },
    {
      "inputs": [
        {
          "internalType": "address",
          "name": "operator",
          "type": "address"
        },
        {
          "internalType": "bool",
          "name": "approved",
          "type": "bool"
        }
      ],
      "name": "setApprovalForAll",
      "outputs": [],
      "stateMutability": "nonpayable",
      "type": "function"
    },
    {
      "inputs": [
        {
          "internalType": "uint256",
          "name": "_cost",
          "type": "uint256"
        }
      ],
      "name": "setCost",
      "outputs": [],
      "stateMutability": "nonpayable",
      "type": "function"
    },
    {
      "inputs": [
        {
          "internalType": "bytes4",
          "name": "interfaceId",
          "type": "bytes4"
        }
      ],
      "name": "supportsInterface",
      "outputs": [
        {
          "internalType": "bool",
          "name": "",
          "type": "bool"
        }
      ],
      "stateMutability": "view",
      "type": "function"
    },
    {
      "inputs": [],
      "name": "symbol",
      "outputs": [
        {
          "internalType": "string",
          "name": "",
          "type": "string"
        }
      ],
      "stateMutability": "view",
      "type": "function"
    },
    {
      "inputs": [
        {
          "internalType": "uint256",
          "name": "tokenId",
          "type": "uint256"
        }
      ],
      "name": "tokenURI",
      "outputs": [
        {
          "internalType": "string",
          "name": "",
          "type": "string"
        }
      ],
      "stateMutability": "view",
      "type": "function"
    },
    {
      "inputs": [
        {
          "internalType": "address",
          "name": "from",
          "type": "address"
        },
        {
          "internalType": "address",
          "name": "to",
          "type": "address"
        },
        {
          "internalType": "uint256",
          "name": "tokenId",
          "type": "uint256"
        }
      ],
      "name": "transferFrom",
      "outputs": [],
      "stateMutability": "nonpayable",
      "type": "function"
    },
    {
      "inputs": [
        {
          "internalType": "address",
          "name": "newOwner",
          "type": "address"
        }
      ],
      "name": "transferOwnership",
      "outputs": [],
      "stateMutability": "nonpayable",
      "type": "function"
    },
    {
      "inputs": [],
      "name": "withdraw",
      "outputs": [],
      "stateMutability": "payable",
      "type": "function"
    }
  ],
  "bytecode": "0x60806040526040518060400160405280600581526020017f2e6a736f6e0000000000000000000000000000000000000000000000000000008152506009908051906020019062000051929190620001b1565b503480156200005f57600080fd5b50604051620031c2380380620031c28339818101604052810190620000859190620003fe565b818181600090805190602001906200009f929190620001b1565b508060019080519060200190620000b8929190620001b1565b505050620000db620000cf620000e360201b60201c565b620000eb60201b60201c565b5050620004e8565b600033905090565b6000600660009054906101000a900473ffffffffffffffffffffffffffffffffffffffff16905081600660006101000a81548173ffffffffffffffffffffffffffffffffffffffff021916908373ffffffffffffffffffffffffffffffffffffffff1602179055508173ffffffffffffffffffffffffffffffffffffffff168173ffffffffffffffffffffffffffffffffffffffff167f8be0079c531659141344cd1fd0a4f28419497f9722a3daafe3b4186f6b6457e060405160405180910390a35050565b828054620001bf90620004b2565b90600052602060002090601f016020900481019282620001e357600085556200022f565b82601f10620001fe57805160ff19168380011785556200022f565b828001600101855582156200022f579182015b828111156200022e57825182559160200191906001019062000211565b5b5090506200023e919062000242565b5090565b5b808211156200025d57600081600090555060010162000243565b5090565b6000604051905090565b600080fd5b600080fd5b600080fd5b600080fd5b6000601f19601f8301169050919050565b7f4e487b7100000000000000000000000000000000000000000000000000000000600052604160045260246000fd5b620002ca826200027f565b810181811067ffffffffffffffff82111715620002ec57620002eb62000290565b5b80604052505050565b60006200030162000261565b90506200030f8282620002bf565b919050565b600067ffffffffffffffff82111562000332576200033162000290565b5b6200033d826200027f565b9050602081019050919050565b60005b838110156200036a5780820151818401526020810190506200034d565b838111156200037a576000848401525b50505050565b600062000397620003918462000314565b620002f5565b905082815260208101848484011115620003b657620003b56200027a565b5b620003c38482856200034a565b509392505050565b600082601f830112620003e357620003e262000275565b5b8151620003f584826020860162000380565b91505092915050565b600080604083850312156200041857620004176200026b565b5b600083015167ffffffffffffffff81111562000439576200043862000270565b5b6200044785828601620003cb565b925050602083015167ffffffffffffffff8111156200046b576200046a62000270565b5b6200047985828601620003cb565b9150509250929050565b7f4e487b7100000000000000000000000000000000000000000000000000000000600052602260045260246000fd5b60006002820490506001821680620004cb57607f821691505b60208210811415620004e257620004e162000483565b5b50919050565b612cca80620004f86000396000f3fe6080604052600436106101355760003560e01c806370a08231116100ab578063a22cb4651161006f578063a22cb465146103e8578063aa46a40014610411578063b88d4fde1461043c578063c87b56dd14610465578063e985e9c5146104a2578063f2fde38b146104df57610135565b806370a0823114610320578063715018a61461035d57806374f10479146103745780638da5cb5b1461039257806395d89b41146103bd57610135565b8063239c70ae116100fd578063239c70ae1461023357806323b872dd1461025e5780633ccfd60b1461028757806342842e0e1461029157806344a0d68a146102ba5780636352211e146102e357610135565b806301ffc9a71461013a57806306fdde0314610177578063081812fc146101a2578063095ea7b3146101df57806313faede614610208575b600080fd5b34801561014657600080fd5b50610161600480360381019061015c9190611b61565b610508565b60405161016e9190611ba9565b60405180910390f35b34801561018357600080fd5b5061018c6105ea565b6040516101999190611c5d565b60405180910390f35b3480156101ae57600080fd5b506101c960048036038101906101c49190611cb5565b61067c565b6040516101d69190611d23565b60405180910390f35b3480156101eb57600080fd5b5061020660048036038101906102019190611d6a565b6106c2565b005b34801561021457600080fd5b5061021d6107da565b60405161022a9190611db9565b60405180910390f35b34801561023f57600080fd5b506102486107e0565b6040516102559190611db9565b60405180910390f35b34801561026a57600080fd5b5061028560048036038101906102809190611dd4565b6107e6565b005b61028f610846565b005b34801561029d57600080fd5b506102b860048036038101906102b39190611dd4565b610904565b005b3480156102c657600080fd5b506102e160048036038101906102dc9190611cb5565b610924565b005b3480156102ef57600080fd5b5061030a60048036038101906103059190611cb5565b610936565b6040516103179190611d23565b60405180910390f35b34801561032c57600080fd5b5061034760048036038101906103429190611e27565b6109e8565b6040516103549190611db9565b60405180910390f35b34801561036957600080fd5b50610372610aa0565b005b61037c610ab4565b6040516103899190611db9565b60405180910390f35b34801561039e57600080fd5b506103a7610b7e565b6040516103b49190611d23565b60405180910390f35b3480156103c957600080fd5b506103d2610ba8565b6040516103df9190611c5d565b60405180910390f35b3480156103f457600080fd5b5061040f600480360381019061040a9190611e80565b610c3a565b005b34801561041d57600080fd5b50610426610c50565b6040516104339190611db9565b60405180910390f35b34801561044857600080fd5b50610463600480360381019061045e9190611ff5565b610c56565b005b34801561047157600080fd5b5061048c60048036038101906104879190611cb5565b610cb8565b6040516104999190611c5d565b60405180910390f35b3480156104ae57600080fd5b506104c960048036038101906104c49190612078565b610d58565b6040516104d69190611ba9565b60405180910390f35b3480156104eb57600080fd5b5061050660048036038101906105019190611e27565b610dec565b005b60007f80ac58cd000000000000000000000000000000000000000000000000000000007bffffffffffffffffffffffffffffffffffffffffffffffffffffffff1916827bffffffffffffffffffffffffffffffffffffffffffffffffffffffff191614806105d357507f5b5e139f000000000000000000000000000000000000000000000000000000007bffffffffffffffffffffffffffffffffffffffffffffffffffffffff1916827bffffffffffffffffffffffffffffffffffffffffffffffffffffffff1916145b806105e357506105e282610e70565b5b9050919050565b6060600080546105f9906120e7565b80601f0160208091040260200160405190810160405280929190818152602001828054610625906120e7565b80156106725780601f1061064757610100808354040283529160200191610672565b820191906000526020600020905b81548152906001019060200180831161065557829003601f168201915b5050505050905090565b600061068782610eda565b6004600083815260200190815260200160002060009054906101000a900473ffffffffffffffffffffffffffffffffffffffff169050919050565b60006106cd82610936565b90508073ffffffffffffffffffffffffffffffffffffffff168373ffffffffffffffffffffffffffffffffffffffff16141561073e576040517f08c379a00000000000000000000000000000000000000000000000000000000081526004016107359061218b565b60405180910390fd5b8073ffffffffffffffffffffffffffffffffffffffff1661075d610f25565b73ffffffffffffffffffffffffffffffffffffffff16148061078c575061078b81610786610f25565b610d58565b5b6107cb576040517f08c379a00000000000000000000000000000000000000000000000000000000081526004016107c29061221d565b60405180910390fd5b6107d58383610f2d565b505050565b600a5481565b600b5481565b6107f76107f1610f25565b82610fe6565b610836576040517f08c379a000000000000000000000000000000000000000000000000000000000815260040161082d906122af565b60405180910390fd5b61084183838361107b565b505050565b61084e6112e2565b6000610858610b7e565b73ffffffffffffffffffffffffffffffffffffffff164760405161087b90612300565b60006040518083038185875af1925050503d80600081146108b8576040519150601f19603f3d011682016040523d82523d6000602084013e6108bd565b606091505b5050905080610901576040517f08c379a00000000000000000000000000000000000000000000000000000000081526004016108f890612361565b60405180910390fd5b50565b61091f83838360405180602001604052806000815250610c56565b505050565b61092c6112e2565b80600a8190555050565b6000806002600084815260200190815260200160002060009054906101000a900473ffffffffffffffffffffffffffffffffffffffff169050600073ffffffffffffffffffffffffffffffffffffffff168173ffffffffffffffffffffffffffffffffffffffff1614156109df576040517f08c379a00000000000000000000000000000000000000000000000000000000081526004016109d6906123cd565b60405180910390fd5b80915050919050565b60008073ffffffffffffffffffffffffffffffffffffffff168273ffffffffffffffffffffffffffffffffffffffff161415610a59576040517f08c379a0000000000000000000000000000000000000000000000000000000008152600401610a509061245f565b60405180910390fd5b600360008373ffffffffffffffffffffffffffffffffffffffff1673ffffffffffffffffffffffffffffffffffffffff168152602001908152602001600020549050919050565b610aa86112e2565b610ab26000611360565b565b6000600b546001600754610ac891906124ae565b1115610b09576040517f08c379a0000000000000000000000000000000000000000000000000000000008152600401610b0090612550565b60405180910390fd5b600a54341015610b4e576040517f08c379a0000000000000000000000000000000000000000000000000000000008152600401610b45906125bc565b60405180910390fd5b60076000815480929190610b61906125dc565b919050555060006007549050610b773382611426565b8091505090565b6000600660009054906101000a900473ffffffffffffffffffffffffffffffffffffffff16905090565b606060018054610bb7906120e7565b80601f0160208091040260200160405190810160405280929190818152602001828054610be3906120e7565b8015610c305780601f10610c0557610100808354040283529160200191610c30565b820191906000526020600020905b815481529060010190602001808311610c1357829003601f168201915b5050505050905090565b610c4c610c45610f25565b8383611444565b5050565b60075481565b610c67610c61610f25565b83610fe6565b610ca6576040517f08c379a0000000000000000000000000000000000000000000000000000000008152600401610c9d906122af565b60405180910390fd5b610cb2848484846115b1565b50505050565b6060610cc38261160d565b610d02576040517f08c379a0000000000000000000000000000000000000000000000000000000008152600401610cf990612671565b60405180910390fd5b6000610d0c611679565b90506000815111610d2c5760405180602001604052806000815250610d50565b806009604051602001610d40929190612761565b6040516020818303038152906040525b915050919050565b6000600560008473ffffffffffffffffffffffffffffffffffffffff1673ffffffffffffffffffffffffffffffffffffffff16815260200190815260200160002060008373ffffffffffffffffffffffffffffffffffffffff1673ffffffffffffffffffffffffffffffffffffffff16815260200190815260200160002060009054906101000a900460ff16905092915050565b610df46112e2565b600073ffffffffffffffffffffffffffffffffffffffff168173ffffffffffffffffffffffffffffffffffffffff161415610e64576040517f08c379a0000000000000000000000000000000000000000000000000000000008152600401610e5b906127f7565b60405180910390fd5b610e6d81611360565b50565b60007f01ffc9a7000000000000000000000000000000000000000000000000000000007bffffffffffffffffffffffffffffffffffffffffffffffffffffffff1916827bffffffffffffffffffffffffffffffffffffffffffffffffffffffff1916149050919050565b610ee38161160d565b610f22576040517f08c379a0000000000000000000000000000000000000000000000000000000008152600401610f19906123cd565b60405180910390fd5b50565b600033905090565b816004600083815260200190815260200160002060006101000a81548173ffffffffffffffffffffffffffffffffffffffff021916908373ffffffffffffffffffffffffffffffffffffffff160217905550808273ffffffffffffffffffffffffffffffffffffffff16610fa083610936565b73ffffffffffffffffffffffffffffffffffffffff167f8c5be1e5ebec7d5bd14f71427d1e84f3dd0314c0f7b2291e5b200ac8c7c3b92560405160405180910390a45050565b600080610ff283610936565b90508073ffffffffffffffffffffffffffffffffffffffff168473ffffffffffffffffffffffffffffffffffffffff16148061103457506110338185610d58565b5b8061107257508373ffffffffffffffffffffffffffffffffffffffff1661105a8461067c565b73ffffffffffffffffffffffffffffffffffffffff16145b91505092915050565b8273ffffffffffffffffffffffffffffffffffffffff1661109b82610936565b73ffffffffffffffffffffffffffffffffffffffff16146110f1576040517f08c379a00000000000000000000000000000000000000000000000000000000081526004016110e890612889565b60405180910390fd5b600073ffffffffffffffffffffffffffffffffffffffff168273ffffffffffffffffffffffffffffffffffffffff161415611161576040517f08c379a00000000000000000000000000000000000000000000000000000000081526004016111589061291b565b60405180910390fd5b61116c83838361170b565b611177600082610f2d565b6001600360008573ffffffffffffffffffffffffffffffffffffffff1673ffffffffffffffffffffffffffffffffffffffff16815260200190815260200160002060008282546111c7919061293b565b925050819055506001600360008473ffffffffffffffffffffffffffffffffffffffff1673ffffffffffffffffffffffffffffffffffffffff168152602001908152602001600020600082825461121e91906124ae565b92505081905550816002600083815260200190815260200160002060006101000a81548173ffffffffffffffffffffffffffffffffffffffff021916908373ffffffffffffffffffffffffffffffffffffffff160217905550808273ffffffffffffffffffffffffffffffffffffffff168473ffffffffffffffffffffffffffffffffffffffff167fddf252ad1be2c89b69c2b068fc378daa952ba7f163c4a11628f55a4df523b3ef60405160405180910390a46112dd838383611710565b505050565b6112ea610f25565b73ffffffffffffffffffffffffffffffffffffffff16611308610b7e565b73ffffffffffffffffffffffffffffffffffffffff161461135e576040517f08c379a0000000000000000000000000000000000000000000000000000000008152600401611355906129bb565b60405180910390fd5b565b6000600660009054906101000a900473ffffffffffffffffffffffffffffffffffffffff16905081600660006101000a81548173ffffffffffffffffffffffffffffffffffffffff021916908373ffffffffffffffffffffffffffffffffffffffff1602179055508173ffffffffffffffffffffffffffffffffffffffff168173ffffffffffffffffffffffffffffffffffffffff167f8be0079c531659141344cd1fd0a4f28419497f9722a3daafe3b4186f6b6457e060405160405180910390a35050565b611440828260405180602001604052806000815250611715565b5050565b8173ffffffffffffffffffffffffffffffffffffffff168373ffffffffffffffffffffffffffffffffffffffff1614156114b3576040517f08c379a00000000000000000000000000000000000000000000000000000000081526004016114aa90612a27565b60405180910390fd5b80600560008573ffffffffffffffffffffffffffffffffffffffff1673ffffffffffffffffffffffffffffffffffffffff16815260200190815260200160002060008473ffffffffffffffffffffffffffffffffffffffff1673ffffffffffffffffffffffffffffffffffffffff16815260200190815260200160002060006101000a81548160ff0219169083151502179055508173ffffffffffffffffffffffffffffffffffffffff168373ffffffffffffffffffffffffffffffffffffffff167f17307eab39ab6107e8899845ad3d59bd9653f200f220920489ca2b5937696c31836040516115a49190611ba9565b60405180910390a3505050565b6115bc84848461107b565b6115c884848484611770565b611607576040517f08c379a00000000000000000000000000000000000000000000000000000000081526004016115fe90612ab9565b60405180910390fd5b50505050565b60008073ffffffffffffffffffffffffffffffffffffffff166002600084815260200190815260200160002060009054906101000a900473ffffffffffffffffffffffffffffffffffffffff1673ffffffffffffffffffffffffffffffffffffffff1614159050919050565b606060088054611688906120e7565b80601f01602080910402602001604051908101604052809291908181526020018280546116b4906120e7565b80156117015780601f106116d657610100808354040283529160200191611701565b820191906000526020600020905b8154815290600101906020018083116116e457829003601f168201915b5050505050905090565b505050565b505050565b61171f83836118f8565b61172c6000848484611770565b61176b576040517f08c379a000000000000000000000000000000000000000000000000000000000815260040161176290612ab9565b60405180910390fd5b505050565b60006117918473ffffffffffffffffffffffffffffffffffffffff16611ad2565b156118eb578373ffffffffffffffffffffffffffffffffffffffff1663150b7a026117ba610f25565b8786866040518563ffffffff1660e01b81526004016117dc9493929190612b2e565b6020604051808303816000875af192505050801561181857506040513d601f19601f820116820180604052508101906118159190612b8f565b60015b61189b573d8060008114611848576040519150601f19603f3d011682016040523d82523d6000602084013e61184d565b606091505b50600081511415611893576040517f08c379a000000000000000000000000000000000000000000000000000000000815260040161188a90612ab9565b60405180910390fd5b805181602001fd5b63150b7a0260e01b7bffffffffffffffffffffffffffffffffffffffffffffffffffffffff1916817bffffffffffffffffffffffffffffffffffffffffffffffffffffffff1916149150506118f0565b600190505b949350505050565b600073ffffffffffffffffffffffffffffffffffffffff168273ffffffffffffffffffffffffffffffffffffffff161415611968576040517f08c379a000000000000000000000000000000000000000000000000000000000815260040161195f90612c08565b60405180910390fd5b6119718161160d565b156119b1576040517f08c379a00000000000000000000000000000000000000000000000000000000081526004016119a890612c74565b60405180910390fd5b6119bd6000838361170b565b6001600360008473ffffffffffffffffffffffffffffffffffffffff1673ffffffffffffffffffffffffffffffffffffffff1681526020019081526020016000206000828254611a0d91906124ae565b92505081905550816002600083815260200190815260200160002060006101000a81548173ffffffffffffffffffffffffffffffffffffffff021916908373ffffffffffffffffffffffffffffffffffffffff160217905550808273ffffffffffffffffffffffffffffffffffffffff16600073ffffffffffffffffffffffffffffffffffffffff167fddf252ad1be2c89b69c2b068fc378daa952ba7f163c4a11628f55a4df523b3ef60405160405180910390a4611ace60008383611710565b5050565b6000808273ffffffffffffffffffffffffffffffffffffffff163b119050919050565b6000604051905090565b600080fd5b600080fd5b60007fffffffff0000000000000000000000000000000000000000000000000000000082169050919050565b611b3e81611b09565b8114611b4957600080fd5b50565b600081359050611b5b81611b35565b92915050565b600060208284031215611b7757611b76611aff565b5b6000611b8584828501611b4c565b91505092915050565b60008115159050919050565b611ba381611b8e565b82525050565b6000602082019050611bbe6000830184611b9a565b92915050565b600081519050919050565b600082825260208201905092915050565b60005b83811015611bfe578082015181840152602081019050611be3565b83811115611c0d576000848401525b50505050565b6000601f19601f8301169050919050565b6000611c2f82611bc4565b611c398185611bcf565b9350611c49818560208601611be0565b611c5281611c13565b840191505092915050565b60006020820190508181036000830152611c778184611c24565b905092915050565b6000819050919050565b611c9281611c7f565b8114611c9d57600080fd5b50565b600081359050611caf81611c89565b92915050565b600060208284031215611ccb57611cca611aff565b5b6000611cd984828501611ca0565b91505092915050565b600073ffffffffffffffffffffffffffffffffffffffff82169050919050565b6000611d0d82611ce2565b9050919050565b611d1d81611d02565b82525050565b6000602082019050611d386000830184611d14565b92915050565b611d4781611d02565b8114611d5257600080fd5b50565b600081359050611d6481611d3e565b92915050565b60008060408385031215611d8157611d80611aff565b5b6000611d8f85828601611d55565b9250506020611da085828601611ca0565b9150509250929050565b611db381611c7f565b82525050565b6000602082019050611dce6000830184611daa565b92915050565b600080600060608486031215611ded57611dec611aff565b5b6000611dfb86828701611d55565b9350506020611e0c86828701611d55565b9250506040611e1d86828701611ca0565b9150509250925092565b600060208284031215611e3d57611e3c611aff565b5b6000611e4b84828501611d55565b91505092915050565b611e5d81611b8e565b8114611e6857600080fd5b50565b600081359050611e7a81611e54565b92915050565b60008060408385031215611e9757611e96611aff565b5b6000611ea585828601611d55565b9250506020611eb685828601611e6b565b9150509250929050565b600080fd5b600080fd5b7f4e487b7100000000000000000000000000000000000000000000000000000000600052604160045260246000fd5b611f0282611c13565b810181811067ffffffffffffffff82111715611f2157611f20611eca565b5b80604052505050565b6000611f34611af5565b9050611f408282611ef9565b919050565b600067ffffffffffffffff821115611f6057611f5f611eca565b5b611f6982611c13565b9050602081019050919050565b82818337600083830152505050565b6000611f98611f9384611f45565b611f2a565b905082815260208101848484011115611fb457611fb3611ec5565b5b611fbf848285611f76565b509392505050565b600082601f830112611fdc57611fdb611ec0565b5b8135611fec848260208601611f85565b91505092915050565b6000806000806080858703121561200f5761200e611aff565b5b600061201d87828801611d55565b945050602061202e87828801611d55565b935050604061203f87828801611ca0565b925050606085013567ffffffffffffffff8111156120605761205f611b04565b5b61206c87828801611fc7565b91505092959194509250565b6000806040838503121561208f5761208e611aff565b5b600061209d85828601611d55565b92505060206120ae85828601611d55565b9150509250929050565b7f4e487b7100000000000000000000000000000000000000000000000000000000600052602260045260246000fd5b600060028204905060018216806120ff57607f821691505b60208210811415612113576121126120b8565b5b50919050565b7f4552433732313a20617070726f76616c20746f2063757272656e74206f776e6560008201527f7200000000000000000000000000000000000000000000000000000000000000602082015250565b6000612175602183611bcf565b915061218082612119565b604082019050919050565b600060208201905081810360008301526121a481612168565b9050919050565b7f4552433732313a20617070726f76652063616c6c6572206973206e6f7420746f60008201527f6b656e206f776e6572206e6f7220617070726f76656420666f7220616c6c0000602082015250565b6000612207603e83611bcf565b9150612212826121ab565b604082019050919050565b60006020820190508181036000830152612236816121fa565b9050919050565b7f4552433732313a2063616c6c6572206973206e6f7420746f6b656e206f776e6560008201527f72206e6f7220617070726f766564000000000000000000000000000000000000602082015250565b6000612299602e83611bcf565b91506122a48261223d565b604082019050919050565b600060208201905081810360008301526122c88161228c565b9050919050565b600081905092915050565b50565b60006122ea6000836122cf565b91506122f5826122da565b600082019050919050565b600061230b826122dd565b9150819050919050565b7f7769746864726177206661696c65640000000000000000000000000000000000600082015250565b600061234b600f83611bcf565b915061235682612315565b602082019050919050565b6000602082019050818103600083015261237a8161233e565b9050919050565b7f4552433732313a20696e76616c696420746f6b656e2049440000000000000000600082015250565b60006123b7601883611bcf565b91506123c282612381565b602082019050919050565b600060208201905081810360008301526123e6816123aa565b9050919050565b7f4552433732313a2061646472657373207a65726f206973206e6f74206120766160008201527f6c6964206f776e65720000000000000000000000000000000000000000000000602082015250565b6000612449602983611bcf565b9150612454826123ed565b604082019050919050565b600060208201905081810360008301526124788161243c565b9050919050565b7f4e487b7100000000000000000000000000000000000000000000000000000000600052601160045260246000fd5b60006124b982611c7f565b91506124c483611c7f565b9250827fffffffffffffffffffffffffffffffffffffffffffffffffffffffffffffffff038211156124f9576124f861247f565b5b828201905092915050565b7f536f6c64206f7574000000000000000000000000000000000000000000000000600082015250565b600061253a600883611bcf565b915061254582612504565b602082019050919050565b600060208201905081810360008301526125698161252d565b9050919050565b7f4e6f7420656e6f75676820455448000000000000000000000000000000000000600082015250565b60006125a6600e83611bcf565b91506125b182612570565b602082019050919050565b600060208201905081810360008301526125d581612599565b9050919050565b60006125e782611c7f565b91507fffffffffffffffffffffffffffffffffffffffffffffffffffffffffffffffff82141561261a5761261961247f565b5b600182019050919050565b7f746f6b656e20696420646f656573206e6f742065786973740000000000000000600082015250565b600061265b601883611bcf565b915061266682612625565b602082019050919050565b6000602082019050818103600083015261268a8161264e565b9050919050565b600081905092915050565b60006126a782611bc4565b6126b18185612691565b93506126c1818560208601611be0565b80840191505092915050565b60008190508160005260206000209050919050565b600081546126ef816120e7565b6126f98186612691565b94506001821660008114612714576001811461272557612758565b60ff19831686528186019350612758565b61272e856126cd565b60005b8381101561275057815481890152600182019150602081019050612731565b838801955050505b50505092915050565b600061276d828561269c565b915061277982846126e2565b91508190509392505050565b7f4f776e61626c653a206e6577206f776e657220697320746865207a65726f206160008201527f6464726573730000000000000000000000000000000000000000000000000000602082015250565b60006127e1602683611bcf565b91506127ec82612785565b604082019050919050565b60006020820190508181036000830152612810816127d4565b9050919050565b7f4552433732313a207472616e736665722066726f6d20696e636f72726563742060008201527f6f776e6572000000000000000000000000000000000000000000000000000000602082015250565b6000612873602583611bcf565b915061287e82612817565b604082019050919050565b600060208201905081810360008301526128a281612866565b9050919050565b7f4552433732313a207472616e7366657220746f20746865207a65726f2061646460008201527f7265737300000000000000000000000000000000000000000000000000000000602082015250565b6000612905602483611bcf565b9150612910826128a9565b604082019050919050565b60006020820190508181036000830152612934816128f8565b9050919050565b600061294682611c7f565b915061295183611c7f565b9250828210156129645761296361247f565b5b828203905092915050565b7f4f776e61626c653a2063616c6c6572206973206e6f7420746865206f776e6572600082015250565b60006129a5602083611bcf565b91506129b08261296f565b602082019050919050565b600060208201905081810360008301526129d481612998565b9050919050565b7f4552433732313a20617070726f766520746f2063616c6c657200000000000000600082015250565b6000612a11601983611bcf565b9150612a1c826129db565b602082019050919050565b60006020820190508181036000830152612a4081612a04565b9050919050565b7f4552433732313a207472616e7366657220746f206e6f6e20455243373231526560008201527f63656976657220696d706c656d656e7465720000000000000000000000000000602082015250565b6000612aa3603283611bcf565b9150612aae82612a47565b604082019050919050565b60006020820190508181036000830152612ad281612a96565b9050919050565b600081519050919050565b600082825260208201905092915050565b6000612b0082612ad9565b612b0a8185612ae4565b9350612b1a818560208601611be0565b612b2381611c13565b840191505092915050565b6000608082019050612b436000830187611d14565b612b506020830186611d14565b612b5d6040830185611daa565b8181036060830152612b6f8184612af5565b905095945050505050565b600081519050612b8981611b35565b92915050565b600060208284031215612ba557612ba4611aff565b5b6000612bb384828501612b7a565b91505092915050565b7f4552433732313a206d696e7420746f20746865207a65726f2061646472657373600082015250565b6000612bf2602083611bcf565b9150612bfd82612bbc565b602082019050919050565b60006020820190508181036000830152612c2181612be5565b9050919050565b7f4552433732313a20746f6b656e20616c7265616479206d696e74656400000000600082015250565b6000612c5e601c83611bcf565b9150612c6982612c28565b602082019050919050565b60006020820190508181036000830152612c8d81612c51565b905091905056fea26469706673582212201840b2d5ea280f18494f4c6a645284e94743fec0fb1d4d15df06abee1a7c4d7164736f6c634300080a0033",
  "linkReferences": {},
  "deployedLinkReferences": {}
}