{
  "_format": "hh-sol-artifact-1",
  "contractName": "NFT3",
  "sourceName": "contracts/NFT3.sol",
  "abi": [
    {
      "inputs": [
        {
          "internalType": "string",
          "name": "_name",
          "type": "string"
        },
        {
          "internalType": "string",
          "name": "_symbol",
          "type": "string"
        }
      ],
      "stateMutability": "nonpayable",
      "type": "constructor"
    },
    {
      "anonymous": false,
      "inputs": [
        {
          "indexed": true,
          "internalType": "address",
          "name": "owner",
          "type": "address"
        },
        {
          "indexed": true,
          "internalType": "address",
          "name": "approved",
          "type": "address"
        },
        {
          "indexed": true,
          "internalType": "uint256",
          "name": "tokenId",
          "type": "uint256"
        }
      ],
      "name": "Approval",
      "type": "event"
    },
    {
      "anonymous": false,
      "inputs": [
        {
          "indexed": true,
          "internalType": "address",
          "name": "owner",
          "type": "address"
        },
        {
          "indexed": true,
          "internalType": "address",
          "name": "operator",
          "type": "address"
        },
        {
          "indexed": false,
          "internalType": "bool",
          "name": "approved",
          "type": "bool"
        }
      ],
      "name": "ApprovalForAll",
      "type": "event"
    },
    {
      "anonymous": false,
      "inputs": [
        {
          "indexed": true,
          "internalType": "address",
          "name": "from",
          "type": "address"
        },
        {
          "indexed": true,
          "internalType": "address",
          "name": "to",
          "type": "address"
        },
        {
          "indexed": true,
          "internalType": "uint256",
          "name": "tokenId",
          "type": "uint256"
        }
      ],
      "name": "Transfer",
      "type": "event"
    },
    {
      "inputs": [
        {
          "internalType": "address",
          "name": "to",
          "type": "address"
        },
        {
          "internalType": "uint256",
          "name": "tokenId",
          "type": "uint256"
        }
      ],
      "name": "approve",
      "outputs": [],
      "stateMutability": "nonpayable",
      "type": "function"
    },
    {
      "inputs": [
        {
          "internalType": "address",
          "name": "owner",
          "type": "address"
        }
      ],
      "name": "balanceOf",
      "outputs": [
        {
          "internalType": "uint256",
          "name": "",
          "type": "uint256"
        }
      ],
      "stateMutability": "view",
      "type": "function"
    },
    {
      "inputs": [
        {
          "internalType": "uint256",
          "name": "tokenId",
          "type": "uint256"
        }
      ],
      "name": "getApproved",
      "outputs": [
        {
          "internalType": "address",
          "name": "",
          "type": "address"
        }
      ],
      "stateMutability": "view",
      "type": "function"
    },
    {
      "inputs": [
        {
          "internalType": "address",
          "name": "owner",
          "type": "address"
        },
        {
          "internalType": "address",
          "name": "operator",
          "type": "address"
        }
      ],
      "name": "isApprovedForAll",
      "outputs": [
        {
          "internalType": "bool",
          "name": "",
          "type": "bool"
        }
      ],
      "stateMutability": "view",
      "type": "function"
    },
    {
      "inputs": [
        {
          "internalType": "string",
          "name": "_tokenURI",
          "type": "string"
        }
      ],
      "name": "mint",
      "outputs": [
        {
          "internalType": "uint256",
          "name": "",
          "type": "uint256"
        }
      ],
      "stateMutability": "nonpayable",
      "type": "function"
    },
    {
      "inputs": [],
      "name": "name",
      "outputs": [
        {
          "internalType": "string",
          "name": "",
          "type": "string"
        }
      ],
      "stateMutability": "view",
      "type": "function"
    },
    {
      "inputs": [
        {
          "internalType": "uint256",
          "name": "tokenId",
          "type": "uint256"
        }
      ],
      "name": "ownerOf",
      "outputs": [
        {
          "internalType": "address",
          "name": "",
          "type": "address"
        }
      ],
      "stateMutability": "view",
      "type": "function"
    },
    {
      "inputs": [
        {
          "internalType": "address",
          "name": "from",
          "type": "address"
        },
        {
          "internalType": "address",
          "name": "to",
          "type": "address"
        },
        {
          "internalType": "uint256",
          "name": "tokenId",
          "type": "uint256"
        }
      ],
      "name": "safeTransferFrom",
      "outputs": [],
      "stateMutability": "nonpayable",
      "type": "function"
    },
    {
      "inputs": [
        {
          "internalType": "address",
          "name": "from",
          "type": "address"
        },
        {
          "internalType": "address",
          "name": "to",
          "type": "address"
        },
        {
          "internalType": "uint256",
          "name": "tokenId",
          "type": "uint256"
        },
        {
          "internalType": "bytes",
          "name": "data",
          "type": "bytes"
        }
      ],
      "name": "safeTransferFrom",
      "outputs": [],
      "stateMutability": "nonpayable",
      "type": "function"
    },
    {
      "inputs": [
        {
          "internalType": "address",
          "name": "operator",
          "type": "address"
        },
        {
          "internalType": "bool",
          "name": "approved",
          "type": "bool"
        }
      ],
      "name": "setApprovalForAll",
      "outputs": [],
      "stateMutability": "nonpayable",
      "type": "function"
    },
    {
      "inputs": [
        {
          "internalType": "bytes4",
          "name": "interfaceId",
          "type": "bytes4"
        }
      ],
      "name": "supportsInterface",
      "outputs": [
        {
          "internalType": "bool",
          "name": "",
          "type": "bool"
        }
      ],
      "stateMutability": "view",
      "type": "function"
    },
    {
      "inputs": [],
      "name": "symbol",
      "outputs": [
        {
          "internalType": "string",
          "name": "",
          "type": "string"
        }
      ],
      "stateMutability": "view",
      "type": "function"
    },
    {
      "inputs": [
        {
          "internalType": "uint256",
          "name": "tokenId",
          "type": "uint256"
        }
      ],
      "name": "tokenURI",
      "outputs": [
        {
          "internalType": "string",
          "name": "",
          "type": "string"
        }
      ],
      "stateMutability": "view",
      "type": "function"
    },
    {
      "inputs": [
        {
          "internalType": "address",
          "name": "from",
          "type": "address"
        },
        {
          "internalType": "address",
          "name": "to",
          "type": "address"
        },
        {
          "internalType": "uint256",
          "name": "tokenId",
          "type": "uint256"
        }
      ],
      "name": "transferFrom",
      "outputs": [],
      "stateMutability": "nonpayable",
      "type": "function"
    }
  ],
  "bytecode": "0x60806040523480156200001157600080fd5b5060405162002c4138038062002c418339818101604052810190620000379190620002c2565b818181600090805190602001906200005192919062000075565b5080600190805190602001906200006a92919062000075565b5050505050620003ac565b828054620000839062000376565b90600052602060002090601f016020900481019282620000a75760008555620000f3565b82601f10620000c257805160ff1916838001178555620000f3565b82800160010185558215620000f3579182015b82811115620000f2578251825591602001919060010190620000d5565b5b50905062000102919062000106565b5090565b5b808211156200012157600081600090555060010162000107565b5090565b6000604051905090565b600080fd5b600080fd5b600080fd5b600080fd5b6000601f19601f8301169050919050565b7f4e487b7100000000000000000000000000000000000000000000000000000000600052604160045260246000fd5b6200018e8262000143565b810181811067ffffffffffffffff82111715620001b057620001af62000154565b5b80604052505050565b6000620001c562000125565b9050620001d3828262000183565b919050565b600067ffffffffffffffff821115620001f657620001f562000154565b5b620002018262000143565b9050602081019050919050565b60005b838110156200022e57808201518184015260208101905062000211565b838111156200023e576000848401525b50505050565b60006200025b6200025584620001d8565b620001b9565b9050828152602081018484840111156200027a57620002796200013e565b5b620002878482856200020e565b509392505050565b600082601f830112620002a757620002a662000139565b5b8151620002b984826020860162000244565b91505092915050565b60008060408385031215620002dc57620002db6200012f565b5b600083015167ffffffffffffffff811115620002fd57620002fc62000134565b5b6200030b858286016200028f565b925050602083015167ffffffffffffffff8111156200032f576200032e62000134565b5b6200033d858286016200028f565b9150509250929050565b7f4e487b7100000000000000000000000000000000000000000000000000000000600052602260045260246000fd5b600060028204905060018216806200038f57607f821691505b60208210811415620003a657620003a562000347565b5b50919050565b61288580620003bc6000396000f3fe608060405234801561001057600080fd5b50600436106100ea5760003560e01c806370a082311161008c578063b88d4fde11610066578063b88d4fde1461025b578063c87b56dd14610277578063d85d3d27146102a7578063e985e9c5146102d7576100ea565b806370a08231146101f157806395d89b4114610221578063a22cb4651461023f576100ea565b8063095ea7b3116100c8578063095ea7b31461016d57806323b872dd1461018957806342842e0e146101a55780636352211e146101c1576100ea565b806301ffc9a7146100ef57806306fdde031461011f578063081812fc1461013d575b600080fd5b61010960048036038101906101049190611868565b610307565b60405161011691906118b0565b60405180910390f35b6101276103e9565b6040516101349190611964565b60405180910390f35b610157600480360381019061015291906119bc565b61047b565b6040516101649190611a2a565b60405180910390f35b61018760048036038101906101829190611a71565b6104c1565b005b6101a3600480360381019061019e9190611ab1565b6105d9565b005b6101bf60048036038101906101ba9190611ab1565b610639565b005b6101db60048036038101906101d691906119bc565b610659565b6040516101e89190611a2a565b60405180910390f35b61020b60048036038101906102069190611b04565b61070b565b6040516102189190611b40565b60405180910390f35b6102296107c3565b6040516102369190611964565b60405180910390f35b61025960048036038101906102549190611b87565b610855565b005b61027560048036038101906102709190611cfc565b61086b565b005b610291600480360381019061028c91906119bc565b6108cd565b60405161029e9190611964565b60405180910390f35b6102c160048036038101906102bc9190611e20565b6109e0565b6040516102ce9190611b40565b60405180910390f35b6102f160048036038101906102ec9190611e69565b610a17565b6040516102fe91906118b0565b60405180910390f35b60007f80ac58cd000000000000000000000000000000000000000000000000000000007bffffffffffffffffffffffffffffffffffffffffffffffffffffffff1916827bffffffffffffffffffffffffffffffffffffffffffffffffffffffff191614806103d257507f5b5e139f000000000000000000000000000000000000000000000000000000007bffffffffffffffffffffffffffffffffffffffffffffffffffffffff1916827bffffffffffffffffffffffffffffffffffffffffffffffffffffffff1916145b806103e257506103e182610aab565b5b9050919050565b6060600080546103f890611ed8565b80601f016020809104026020016040519081016040528092919081815260200182805461042490611ed8565b80156104715780601f1061044657610100808354040283529160200191610471565b820191906000526020600020905b81548152906001019060200180831161045457829003601f168201915b5050505050905090565b600061048682610b15565b6004600083815260200190815260200160002060009054906101000a900473ffffffffffffffffffffffffffffffffffffffff169050919050565b60006104cc82610659565b90508073ffffffffffffffffffffffffffffffffffffffff168373ffffffffffffffffffffffffffffffffffffffff16141561053d576040517f08c379a000000000000000000000000000000000000000000000000000000000815260040161053490611f7c565b60405180910390fd5b8073ffffffffffffffffffffffffffffffffffffffff1661055c610b60565b73ffffffffffffffffffffffffffffffffffffffff16148061058b575061058a81610585610b60565b610a17565b5b6105ca576040517f08c379a00000000000000000000000000000000000000000000000000000000081526004016105c19061200e565b60405180910390fd5b6105d48383610b68565b505050565b6105ea6105e4610b60565b82610c21565b610629576040517f08c379a0000000000000000000000000000000000000000000000000000000008152600401610620906120a0565b60405180910390fd5b610634838383610cb6565b505050565b6106548383836040518060200160405280600081525061086b565b505050565b6000806002600084815260200190815260200160002060009054906101000a900473ffffffffffffffffffffffffffffffffffffffff169050600073ffffffffffffffffffffffffffffffffffffffff168173ffffffffffffffffffffffffffffffffffffffff161415610702576040517f08c379a00000000000000000000000000000000000000000000000000000000081526004016106f99061210c565b60405180910390fd5b80915050919050565b60008073ffffffffffffffffffffffffffffffffffffffff168273ffffffffffffffffffffffffffffffffffffffff16141561077c576040517f08c379a00000000000000000000000000000000000000000000000000000000081526004016107739061219e565b60405180910390fd5b600360008373ffffffffffffffffffffffffffffffffffffffff1673ffffffffffffffffffffffffffffffffffffffff168152602001908152602001600020549050919050565b6060600180546107d290611ed8565b80601f01602080910402602001604051908101604052809291908181526020018280546107fe90611ed8565b801561084b5780601f106108205761010080835404028352916020019161084b565b820191906000526020600020905b81548152906001019060200180831161082e57829003601f168201915b5050505050905090565b610867610860610b60565b8383610f1d565b5050565b61087c610876610b60565b83610c21565b6108bb576040517f08c379a00000000000000000000000000000000000000000000000000000000081526004016108b2906120a0565b60405180910390fd5b6108c78484848461108a565b50505050565b60606108d882610b15565b60006006600084815260200190815260200160002080546108f890611ed8565b80601f016020809104026020016040519081016040528092919081815260200182805461092490611ed8565b80156109715780601f1061094657610100808354040283529160200191610971565b820191906000526020600020905b81548152906001019060200180831161095457829003601f168201915b5050505050905060006109826110e6565b90506000815114156109985781925050506109db565b6000825111156109cd5780826040516020016109b59291906121fa565b604051602081830303815290604052925050506109db565b6109d6846110fd565b925050505b919050565b60006109ec6007611165565b60006109f8600761117b565b9050610a043382611189565b610a0e8184611363565b80915050919050565b6000600560008473ffffffffffffffffffffffffffffffffffffffff1673ffffffffffffffffffffffffffffffffffffffff16815260200190815260200160002060008373ffffffffffffffffffffffffffffffffffffffff1673ffffffffffffffffffffffffffffffffffffffff16815260200190815260200160002060009054906101000a900460ff16905092915050565b60007f01ffc9a7000000000000000000000000000000000000000000000000000000007bffffffffffffffffffffffffffffffffffffffffffffffffffffffff1916827bffffffffffffffffffffffffffffffffffffffffffffffffffffffff1916149050919050565b610b1e816113d7565b610b5d576040517f08c379a0000000000000000000000000000000000000000000000000000000008152600401610b549061210c565b60405180910390fd5b50565b600033905090565b816004600083815260200190815260200160002060006101000a81548173ffffffffffffffffffffffffffffffffffffffff021916908373ffffffffffffffffffffffffffffffffffffffff160217905550808273ffffffffffffffffffffffffffffffffffffffff16610bdb83610659565b73ffffffffffffffffffffffffffffffffffffffff167f8c5be1e5ebec7d5bd14f71427d1e84f3dd0314c0f7b2291e5b200ac8c7c3b92560405160405180910390a45050565b600080610c2d83610659565b90508073ffffffffffffffffffffffffffffffffffffffff168473ffffffffffffffffffffffffffffffffffffffff161480610c6f5750610c6e8185610a17565b5b80610cad57508373ffffffffffffffffffffffffffffffffffffffff16610c958461047b565b73ffffffffffffffffffffffffffffffffffffffff16145b91505092915050565b8273ffffffffffffffffffffffffffffffffffffffff16610cd682610659565b73ffffffffffffffffffffffffffffffffffffffff1614610d2c576040517f08c379a0000000000000000000000000000000000000000000000000000000008152600401610d2390612290565b60405180910390fd5b600073ffffffffffffffffffffffffffffffffffffffff168273ffffffffffffffffffffffffffffffffffffffff161415610d9c576040517f08c379a0000000000000000000000000000000000000000000000000000000008152600401610d9390612322565b60405180910390fd5b610da7838383611443565b610db2600082610b68565b6001600360008573ffffffffffffffffffffffffffffffffffffffff1673ffffffffffffffffffffffffffffffffffffffff1681526020019081526020016000206000828254610e029190612371565b925050819055506001600360008473ffffffffffffffffffffffffffffffffffffffff1673ffffffffffffffffffffffffffffffffffffffff1681526020019081526020016000206000828254610e5991906123a5565b92505081905550816002600083815260200190815260200160002060006101000a81548173ffffffffffffffffffffffffffffffffffffffff021916908373ffffffffffffffffffffffffffffffffffffffff160217905550808273ffffffffffffffffffffffffffffffffffffffff168473ffffffffffffffffffffffffffffffffffffffff167fddf252ad1be2c89b69c2b068fc378daa952ba7f163c4a11628f55a4df523b3ef60405160405180910390a4610f18838383611448565b505050565b8173ffffffffffffffffffffffffffffffffffffffff168373ffffffffffffffffffffffffffffffffffffffff161415610f8c576040517f08c379a0000000000000000000000000000000000000000000000000000000008152600401610f8390612447565b60405180910390fd5b80600560008573ffffffffffffffffffffffffffffffffffffffff1673ffffffffffffffffffffffffffffffffffffffff16815260200190815260200160002060008473ffffffffffffffffffffffffffffffffffffffff1673ffffffffffffffffffffffffffffffffffffffff16815260200190815260200160002060006101000a81548160ff0219169083151502179055508173ffffffffffffffffffffffffffffffffffffffff168373ffffffffffffffffffffffffffffffffffffffff167f17307eab39ab6107e8899845ad3d59bd9653f200f220920489ca2b5937696c318360405161107d91906118b0565b60405180910390a3505050565b611095848484610cb6565b6110a18484848461144d565b6110e0576040517f08c379a00000000000000000000000000000000000000000000000000000000081526004016110d7906124d9565b60405180910390fd5b50505050565b606060405180602001604052806000815250905090565b606061110882610b15565b60006111126110e6565b90506000815111611132576040518060200160405280600081525061115d565b8061113c846115d5565b60405160200161114d9291906121fa565b6040516020818303038152906040525b915050919050565b6001816000016000828254019250508190555050565b600081600001549050919050565b600073ffffffffffffffffffffffffffffffffffffffff168273ffffffffffffffffffffffffffffffffffffffff1614156111f9576040517f08c379a00000000000000000000000000000000000000000000000000000000081526004016111f090612545565b60405180910390fd5b611202816113d7565b15611242576040517f08c379a0000000000000000000000000000000000000000000000000000000008152600401611239906125b1565b60405180910390fd5b61124e60008383611443565b6001600360008473ffffffffffffffffffffffffffffffffffffffff1673ffffffffffffffffffffffffffffffffffffffff168152602001908152602001600020600082825461129e91906123a5565b92505081905550816002600083815260200190815260200160002060006101000a81548173ffffffffffffffffffffffffffffffffffffffff021916908373ffffffffffffffffffffffffffffffffffffffff160217905550808273ffffffffffffffffffffffffffffffffffffffff16600073ffffffffffffffffffffffffffffffffffffffff167fddf252ad1be2c89b69c2b068fc378daa952ba7f163c4a11628f55a4df523b3ef60405160405180910390a461135f60008383611448565b5050565b61136c826113d7565b6113ab576040517f08c379a00000000000000000000000000000000000000000000000000000000081526004016113a290612643565b60405180910390fd5b806006600084815260200190815260200160002090805190602001906113d2929190611759565b505050565b60008073ffffffffffffffffffffffffffffffffffffffff166002600084815260200190815260200160002060009054906101000a900473ffffffffffffffffffffffffffffffffffffffff1673ffffffffffffffffffffffffffffffffffffffff1614159050919050565b505050565b505050565b600061146e8473ffffffffffffffffffffffffffffffffffffffff16611736565b156115c8578373ffffffffffffffffffffffffffffffffffffffff1663150b7a02611497610b60565b8786866040518563ffffffff1660e01b81526004016114b994939291906126b8565b6020604051808303816000875af19250505080156114f557506040513d601f19601f820116820180604052508101906114f29190612719565b60015b611578573d8060008114611525576040519150601f19603f3d011682016040523d82523d6000602084013e61152a565b606091505b50600081511415611570576040517f08c379a0000000000000000000000000000000000000000000000000000000008152600401611567906124d9565b60405180910390fd5b805181602001fd5b63150b7a0260e01b7bffffffffffffffffffffffffffffffffffffffffffffffffffffffff1916817bffffffffffffffffffffffffffffffffffffffffffffffffffffffff1916149150506115cd565b600190505b949350505050565b6060600082141561161d576040518060400160405280600181526020017f30000000000000000000000000000000000000000000000000000000000000008152509050611731565b600082905060005b6000821461164f57808061163890612746565b915050600a8261164891906127be565b9150611625565b60008167ffffffffffffffff81111561166b5761166a611bd1565b5b6040519080825280601f01601f19166020018201604052801561169d5781602001600182028036833780820191505090505b5090505b6000851461172a576001826116b69190612371565b9150600a856116c591906127ef565b60306116d191906123a5565b60f81b8183815181106116e7576116e6612820565b5b60200101907effffffffffffffffffffffffffffffffffffffffffffffffffffffffffffff1916908160001a905350600a8561172391906127be565b94506116a1565b8093505050505b919050565b6000808273ffffffffffffffffffffffffffffffffffffffff163b119050919050565b82805461176590611ed8565b90600052602060002090601f01602090048101928261178757600085556117ce565b82601f106117a057805160ff19168380011785556117ce565b828001600101855582156117ce579182015b828111156117cd5782518255916020019190600101906117b2565b5b5090506117db91906117df565b5090565b5b808211156117f85760008160009055506001016117e0565b5090565b6000604051905090565b600080fd5b600080fd5b60007fffffffff0000000000000000000000000000000000000000000000000000000082169050919050565b61184581611810565b811461185057600080fd5b50565b6000813590506118628161183c565b92915050565b60006020828403121561187e5761187d611806565b5b600061188c84828501611853565b91505092915050565b60008115159050919050565b6118aa81611895565b82525050565b60006020820190506118c560008301846118a1565b92915050565b600081519050919050565b600082825260208201905092915050565b60005b838110156119055780820151818401526020810190506118ea565b83811115611914576000848401525b50505050565b6000601f19601f8301169050919050565b6000611936826118cb565b61194081856118d6565b93506119508185602086016118e7565b6119598161191a565b840191505092915050565b6000602082019050818103600083015261197e818461192b565b905092915050565b6000819050919050565b61199981611986565b81146119a457600080fd5b50565b6000813590506119b681611990565b92915050565b6000602082840312156119d2576119d1611806565b5b60006119e0848285016119a7565b91505092915050565b600073ffffffffffffffffffffffffffffffffffffffff82169050919050565b6000611a14826119e9565b9050919050565b611a2481611a09565b82525050565b6000602082019050611a3f6000830184611a1b565b92915050565b611a4e81611a09565b8114611a5957600080fd5b50565b600081359050611a6b81611a45565b92915050565b60008060408385031215611a8857611a87611806565b5b6000611a9685828601611a5c565b9250506020611aa7858286016119a7565b9150509250929050565b600080600060608486031215611aca57611ac9611806565b5b6000611ad886828701611a5c565b9350506020611ae986828701611a5c565b9250506040611afa868287016119a7565b9150509250925092565b600060208284031215611b1a57611b19611806565b5b6000611b2884828501611a5c565b91505092915050565b611b3a81611986565b82525050565b6000602082019050611b556000830184611b31565b92915050565b611b6481611895565b8114611b6f57600080fd5b50565b600081359050611b8181611b5b565b92915050565b60008060408385031215611b9e57611b9d611806565b5b6000611bac85828601611a5c565b9250506020611bbd85828601611b72565b9150509250929050565b600080fd5b600080fd5b7f4e487b7100000000000000000000000000000000000000000000000000000000600052604160045260246000fd5b611c098261191a565b810181811067ffffffffffffffff82111715611c2857611c27611bd1565b5b80604052505050565b6000611c3b6117fc565b9050611c478282611c00565b919050565b600067ffffffffffffffff821115611c6757611c66611bd1565b5b611c708261191a565b9050602081019050919050565b82818337600083830152505050565b6000611c9f611c9a84611c4c565b611c31565b905082815260208101848484011115611cbb57611cba611bcc565b5b611cc6848285611c7d565b509392505050565b600082601f830112611ce357611ce2611bc7565b5b8135611cf3848260208601611c8c565b91505092915050565b60008060008060808587031215611d1657611d15611806565b5b6000611d2487828801611a5c565b9450506020611d3587828801611a5c565b9350506040611d46878288016119a7565b925050606085013567ffffffffffffffff811115611d6757611d6661180b565b5b611d7387828801611cce565b91505092959194509250565b600067ffffffffffffffff821115611d9a57611d99611bd1565b5b611da38261191a565b9050602081019050919050565b6000611dc3611dbe84611d7f565b611c31565b905082815260208101848484011115611ddf57611dde611bcc565b5b611dea848285611c7d565b509392505050565b600082601f830112611e0757611e06611bc7565b5b8135611e17848260208601611db0565b91505092915050565b600060208284031215611e3657611e35611806565b5b600082013567ffffffffffffffff811115611e5457611e5361180b565b5b611e6084828501611df2565b91505092915050565b60008060408385031215611e8057611e7f611806565b5b6000611e8e85828601611a5c565b9250506020611e9f85828601611a5c565b9150509250929050565b7f4e487b7100000000000000000000000000000000000000000000000000000000600052602260045260246000fd5b60006002820490506001821680611ef057607f821691505b60208210811415611f0457611f03611ea9565b5b50919050565b7f4552433732313a20617070726f76616c20746f2063757272656e74206f776e6560008201527f7200000000000000000000000000000000000000000000000000000000000000602082015250565b6000611f666021836118d6565b9150611f7182611f0a565b604082019050919050565b60006020820190508181036000830152611f9581611f59565b9050919050565b7f4552433732313a20617070726f76652063616c6c6572206973206e6f7420746f60008201527f6b656e206f776e6572206e6f7220617070726f76656420666f7220616c6c0000602082015250565b6000611ff8603e836118d6565b915061200382611f9c565b604082019050919050565b6000602082019050818103600083015261202781611feb565b9050919050565b7f4552433732313a2063616c6c6572206973206e6f7420746f6b656e206f776e6560008201527f72206e6f7220617070726f766564000000000000000000000000000000000000602082015250565b600061208a602e836118d6565b91506120958261202e565b604082019050919050565b600060208201905081810360008301526120b98161207d565b9050919050565b7f4552433732313a20696e76616c696420746f6b656e2049440000000000000000600082015250565b60006120f66018836118d6565b9150612101826120c0565b602082019050919050565b60006020820190508181036000830152612125816120e9565b9050919050565b7f4552433732313a2061646472657373207a65726f206973206e6f74206120766160008201527f6c6964206f776e65720000000000000000000000000000000000000000000000602082015250565b60006121886029836118d6565b91506121938261212c565b604082019050919050565b600060208201905081810360008301526121b78161217b565b9050919050565b600081905092915050565b60006121d4826118cb565b6121de81856121be565b93506121ee8185602086016118e7565b80840191505092915050565b600061220682856121c9565b915061221282846121c9565b91508190509392505050565b7f4552433732313a207472616e736665722066726f6d20696e636f72726563742060008201527f6f776e6572000000000000000000000000000000000000000000000000000000602082015250565b600061227a6025836118d6565b91506122858261221e565b604082019050919050565b600060208201905081810360008301526122a98161226d565b9050919050565b7f4552433732313a207472616e7366657220746f20746865207a65726f2061646460008201527f7265737300000000000000000000000000000000000000000000000000000000602082015250565b600061230c6024836118d6565b9150612317826122b0565b604082019050919050565b6000602082019050818103600083015261233b816122ff565b9050919050565b7f4e487b7100000000000000000000000000000000000000000000000000000000600052601160045260246000fd5b600061237c82611986565b915061238783611986565b92508282101561239a57612399612342565b5b828203905092915050565b60006123b082611986565b91506123bb83611986565b9250827fffffffffffffffffffffffffffffffffffffffffffffffffffffffffffffffff038211156123f0576123ef612342565b5b828201905092915050565b7f4552433732313a20617070726f766520746f2063616c6c657200000000000000600082015250565b60006124316019836118d6565b915061243c826123fb565b602082019050919050565b6000602082019050818103600083015261246081612424565b9050919050565b7f4552433732313a207472616e7366657220746f206e6f6e20455243373231526560008201527f63656976657220696d706c656d656e7465720000000000000000000000000000602082015250565b60006124c36032836118d6565b91506124ce82612467565b604082019050919050565b600060208201905081810360008301526124f2816124b6565b9050919050565b7f4552433732313a206d696e7420746f20746865207a65726f2061646472657373600082015250565b600061252f6020836118d6565b915061253a826124f9565b602082019050919050565b6000602082019050818103600083015261255e81612522565b9050919050565b7f4552433732313a20746f6b656e20616c7265616479206d696e74656400000000600082015250565b600061259b601c836118d6565b91506125a682612565565b602082019050919050565b600060208201905081810360008301526125ca8161258e565b9050919050565b7f45524337323155524953746f726167653a2055524920736574206f66206e6f6e60008201527f6578697374656e7420746f6b656e000000000000000000000000000000000000602082015250565b600061262d602e836118d6565b9150612638826125d1565b604082019050919050565b6000602082019050818103600083015261265c81612620565b9050919050565b600081519050919050565b600082825260208201905092915050565b600061268a82612663565b612694818561266e565b93506126a48185602086016118e7565b6126ad8161191a565b840191505092915050565b60006080820190506126cd6000830187611a1b565b6126da6020830186611a1b565b6126e76040830185611b31565b81810360608301526126f9818461267f565b905095945050505050565b6000815190506127138161183c565b92915050565b60006020828403121561272f5761272e611806565b5b600061273d84828501612704565b91505092915050565b600061275182611986565b91507fffffffffffffffffffffffffffffffffffffffffffffffffffffffffffffffff82141561278457612783612342565b5b600182019050919050565b7f4e487b7100000000000000000000000000000000000000000000000000000000600052601260045260246000fd5b60006127c982611986565b91506127d483611986565b9250826127e4576127e361278f565b5b828204905092915050565b60006127fa82611986565b915061280583611986565b9250826128155761281461278f565b5b828206905092915050565b7f4e487b7100000000000000000000000000000000000000000000000000000000600052603260045260246000fdfea2646970667358221220d57065620f9588204418c7fc706d2913ab14a3a0d4b10e02d66f0c9fd0d196bf64736f6c634300080a0033",
  "linkReferences": {},
  "deployedLinkReferences": {}
}